:020000040800F2
:10000000200A0020E100000807010008090100089B
:1000100000000000000000000000000000000000E0
:100020000000000000000000000000000B010008BC
:1000300000000000000000000D010008A5180008E5
:100040001101000811010008110100081101000848
:10005000110100081101000811010008C90600087B
:100060000000000011010008B9030008ED030008BA
:100070001101000811010008110100081101000818
:10008000110100080000000000000000110100083C
:100090000000000055190008DD19000811010008D2
:1000A0000000000011010008110100081101000802
:1000B00011010008000000001101000811010008F2
:1000C0000448854600F0D6F800480047352500086A
:1000D000C046C046200A00200138FDD1704700000C
:1000E0000C4880F308880C480168090E0B4A9142BD
:1000F00005D10B480B4901600B480C4901600C48C5
:1001000080470C480047FEE7FEE7FEE7FEE7FEE714
:10011000FEE70000200A0020040000001F0000008D
:100120001810024001000000000001400000000023
:1001300001190008C100000830B50B460146002037
:100140002022012409E00D46D5409D4205D31D46DD
:100150009540491B2546954040191546521E002DD5
:10016000F1DC30BD70B500242546002801DA0124F9
:100170004042002901DA01254942FFF7DDFFAC4288
:1001800000D04042002C00D0494270BD0549064ACB
:1001900008685043054A80180860400870470149C4
:1001A00008607047C00200206D4EC6413930000023
:1001B00003460B439B0703D009E008C9121F08C080
:1001C000042AFAD203E00B780370401C491C521E2B
:1001D000F9D27047D2B201E00270401C491EFBD236
:1001E00070470022F6E710B513460A460446194642
:1001F000FFF7F0FF204610BD30B50446002003464F
:1002000000E05B1C934203D2E05CCD5C401BF8D065
:1002100030BDF0B51FB40646002082B0054640242C
:10022000019100901BE0019922460F46304600F0F4
:1002300043F8049A059B801A994110D31046194639
:10024000224600F029F8361A8F41019722460120F4
:100250000021009F00F020F838184D410090204602
:10026000641E0028DFDC019B00982946324607B057
:10027000F0BD0000064C0125064E05E0E36807CC02
:100280002B430C3C98471034B442F7D3FFF71CFFC4
:10029000542B0008742B000810B5202A04DB0146FB
:1002A000203A9140002010BD914020239C1A034623
:1002B000E3401943904010BD10B5202A04DB0846E6
:1002C000203AD040002110BD0B46D340D04020241E
:1002D000A21A91400843194610BD70B58C180578D4
:1002E000401C6B075B0F01D10378401C2A1106D11B
:1002F0000278401C03E006780E70401C491C5B1E0F
:10030000F9D12B0705D40023521E0DD40B70491CC4
:10031000FAE70378401CCB1A921C03E01D780D709D
:10032000491C5B1C521EF9D5A142D8D3002070BDD8
:1003300010B5134886B00EC86C460EC407C807C473
:10034000104C0021204600F00AFF204600F0F4FF88
:100350000121204600F0ECFE0021204600F0E8FEDE
:1003600000231A466946084801F098F80648002319
:100370001A4603A9143001F091F806B010BD000030
:100380003C2B00080038004044000240014800684F
:10039000704700002000002010B572B6002005490B
:1003A000487101461920800100F008FD00F0C6FDEB
:1003B00062B610BD0400002070B5202000F056F891
:1003C0000124094D002803D06C70202000F02AF889
:1003D00001267602304600F049F8002803D02C7040
:1003E000304600F01FF870BDA702002070B501264E
:1003F0007603304600F03AF80124094D002803D076
:100400006C70304600F00EF801267604304600F09D
:100410002DF8002803D02C70304600F003F870BD92
:10042000A702002001494860704700000000024018
:100430000268520852000A430260704710B5016812
:100440004908490001600021016041608160C1608C
:10045000C0B205210838FFF76FFE0F218140024826
:1004600042681143416010BD000002400349096821
:10047000014201D001207047002070470000024077
:10048000002A026801D00A4300E08A4302607047F4
:1004900010B50A7A8B7D4C7C1A430B7C23431A439C
:1004A0004B8A1A438B8A1A430B8B1A434B8B1A4382
:1004B0000368094C23401A43026002680123DB03EE
:1004C0009A438B8B1A430260CA6842600A68826052
:1004D0004968C16010BD00000F80FFFF002101606E
:1004E00041600172C16001744174418281828175F1
:1004F0000183418381837047F8B53E2000F050FDB1
:10050000044601463E2000F09BFDE00655D53D4CDB
:100510000120A0719B2000F069FD694608708006EB
:10052000C00F0027384DC026E071002846D00222B7
:100530003649FF2000F085FE3449606A4A788242DD
:1005400051D0A771287B30432873297B792000F094
:100550009BFD02215B2000F097FD772000F020FD3D
:1005600080210143772000F06BFD0E2001F0D6FDC5
:10057000287B30432873297B792000F085FD00F02B
:1005800081FB01226946FF2000F05BFE50215B20C9
:1005900000F07AFD287B40214006400E0843287376
:1005A000297B792000F070FDA87A8006800E8030CB
:1005B000A872A97A772000F067FDF8BDA771287BA3
:1005C00030432873297B792000F05EFD02215B20F7
:1005D00000F05AFDA87A80210843A872A97A7720F2
:1005E00000F052FDC1E7D21C1446FF20891C00F028
:1005F00028FEA21C032AE0D304490548D21EFFF7B7
:10060000D7FDF8BD78010020C80200200C050020AD
:10061000FE020020002508B52E462C4601F0D0FE33
:10062000264801F0F5F9264801F0F2F901F018FF2B
:1006300007460221234801F0CAFA0028F0D002211F
:10064000204801F0BCFA1F4801F0FEFAC0B2002EAB
:1006500006D029460B318F4204D904023D46DFE71C
:100660000126FAE704430026204601F093FE68467F
:1006700001F09CFE0028D3D00098124F0004010E18
:10068000384601F0E4FA0121384601F0A0FA0028CA
:10069000F9D00121384601F092FA0098C1B23846EB
:1006A00001F0D5FA0121384601F091FA0028F9D07D
:1006B0000121384601F083FAB2E70000004401400E
:1006C000004801400038014070B5FF240134204645
:1006D00000F01CF800280FD0204600F011F8074D5C
:1006E00004E0FFF709FF012001F018FD214628462C
:1006F00000F0ADF80028F4D170BD000000040048FF
:1007000001494861704700000004014005494A69F9
:10071000024204D00968014201D001207047002044
:10072000704700000004014000B50346006801F076
:10073000CBFE987900281AD019791048002909D0E1
:1007400041681A68114341605979022907D000298C
:100750000ED008E001681A6811430160F4E781686F
:100760001A6811438160C1681A681143C16000BDF5
:1007700081681A681143816000BD000000040140D7
:100780008B08084A10B59B009A1893688907090FCF
:100790000F248C40A3439360936888400343936085
:1007A00010BD000000000140F0B5CA7813071B0F10
:1007B000D20601D58A78134300229406240E0E88AF
:1007C000012595402E4207D005680F26A640B54367
:1007D0001E46A64035430560521CD2B2082AECD30F
:1007E0000A88071D120A944600229406240E012549
:1007F00095406646354207D03D680F26A640B54372
:100800001E46A64035433D60521CD2B2082AECD3A6
:10081000CA78282A06D0482A03D1026909880A43DF
:100820000261F0BD426909880A434261F0BD4B078D
:1008300010B5DB0E082901D2203000E024300F244F
:100840009C4001689A40A1431143016010BD80683B
:10085000084000D001207047416170470161704736
:100860000021C9430180022181700421C1707047B9
:100870003EB50121084600F0AFF808210120FFF73E
:100880007FFFFF2001300090002469460C714C71FD
:100890008C716846FFF748FF0720694608724C7262
:1008A0008C7202A800F036F83EBD3EB500F01CF890
:1008B0000121084600F090F808210120FFF760FFB1
:1008C000FF20013000900024684604714471012526
:1008D0008571FFF729FF072168460172447285720E
:1008E00002A800F017F83EBD08B50121880400F009
:1008F0005BF86846FFF7B4FFFF20013069460880C7
:10090000012088700420C8700148FFF74DFF08BD22
:100910000004004830B5827801240178002A15D0FF
:100920008B080E4A9B009A1813688907C90EFF2589
:100930008D40AB434578AD072D0E8D402B431360A2
:100940000078C006C00E8440054804E0C806C00E0A
:10095000844003488030046030BD000000E400E0C3
:1009600000E100E08307FF22DB0E9A408907090EB1
:10097000994000280BDA0007000F08388308084860
:100980009B001818C36993430B43C36170478308E6
:1009900004489B001818036893430B430360704797
:1009A00000ED00E000E400E0044A0029516901D0B4
:1009B000014300E081435161704700000010024094
:1009C000044A0029D16901D0014300E08143D1618B
:1009D0007047000000100240044A0029916901D0CC
:1009E000014300E081439161704700000010024024
:1009F00010B500F02DF804494968044A0906090FAA
:100A0000515CC84010BD000000100240B002002040
:100A100010B5FFF7EDFF04494968044A4905490F3D
:100A2000515CC84010BD000000100240B002002020
:100A300010B5FFF7DDFF04494968044A8904490FEE
:100A4000515CC84010BD000000100240B002002000
:100A500010B50E4A51680C2001400D48042914D0ED
:100A6000082912D15168C90304D55168890302D5F8
:100A7000401000E0074811688B0E11685B1C4902AA
:100A8000490F5843491CFFF757FB10BD00100240A7
:100A900000127A00001BB70070B50A4DE978E0201B
:100AA00001432C7981200443292000F0C9FA214612
:100AB0002A2000F0C5FAE97A82200143782000F06C
:100AC000BFFA70BDC8020020F8B5FFF7D1FE66205E
:100AD000414D2870002000F063FA2870002029465C
:100AE000AA310A46803A3D4C0B5CD35C2354401C2F
:100AF0000E28F9D3272238493231082000F0D4FBE0
:100B00005122354959312F2000F0CEFB2878662834
:100B100007D131486A30817A082001434A2000F029
:100B20008FFA207A802108432072217A692000F010
:100B300087FAFF2000F0B0F80D21AC2000F080FA19
:100B40004021AF2000F07CFA0021FA2000F078FA72
:100B50007F213E2000F074FA8021662000F070FAB8
:100B600001F034FF01F048FFA07A8006800EA072E9
:100B7000A17A772000F064FAE07A04263043E0722C
:100B8000E07A5F210840E072E17A782000F058FABC
:100B900001F0F0FE002000F095F9287901270028E7
:100BA00002D101F051FE2F7160783043607061789E
:100BB000242000F045FA00219B2000F041FAFFF7C5
:100BC00074FEFFF7E9FB00F087F90146AF7004A05F
:100BD00001F0E2F8F8BD000004000020C802002087
:100BE000766F6C743D25640A0000000010B5002289
:100BF000034B0146FE20DA6100F068FA10BD0000E8
:100C00000400002038B5192000F044FE01218804BA
:100C1000FFF7CAFE6846FFF723FE01246402694617
:100C20000C800120887010200F4DC8702846FFF7F7
:100C3000BBFD21462846FFF711FE012000F02AFEE9
:100C400021462846FFF708FE012000F023FE21463A
:100C50002846FFF703FE322000F01CFE00F04EF89D
:100C6000FFF732FF38BD00000004004810B504490A
:100C7000097B8909890101430C2000F0E1F910BDCD
:100C80002E00002010B580216B2000F0FDF900211E
:100C90006B2000F0F9F910BD10B50146A52000F059
:100CA000F3F910BD10B5002807D004280BD0082890
:100CB0000FD00A2813D0012010BD04220B491720A1
:100CC00000F0F2FA10E004220949172000F0ECFAD3
:100CD0000AE004220749172000F0E6FA04E00422A3
:100CE0000549172000F0E0FA002010BD1000002098
:100CF00014000020180000201C000020F8B500F0AF
:100D00004DFA0125234C2D03A0896E002843B043E2
:100D10004004400CAF00B84329118843A08119203A
:100D200001F0FCF98821F82001F08CFE192001F077
:100D3000F5F94621F92001F085FE192001F0EEF9C0
:100D400000F02CFAA089610128433043084338435E
:100D5000C9110843A0810A2000F09CFDFFF7C4FDE3
:100D6000FFF7E6FAC621F92000F06AF9C021352024
:100D700000F066F9C021282000F062F9192000F087
:100D800089FD8021352000F05BF90A2000F082FD0A
:100D9000F8BD00000004004810B5074A0028D17AC9
:100DA00002D00820014301E0F7200140D1727820F1
:100DB00000F06AF910BD0000C8020020F0B583B051
:100DC0000F460446002000902C4D0190E979BF2089
:100DD0000140E9713D2000F033F900219F2000F02F
:100DE0002FF9802669460E710522622000F05CFA18
:100DF00000F092FA20467D21484369460870020AB5
:100E00004A70020C8A70000EC8701D48007866286F
:100E1000A87A26D04009400120210843694608717C
:100E20000522732000F040FA00F076FAA97ADF205C
:100E30000140772000F004F9E97940200143E9718D
:100E40003D2000F0FDF8A0B200F01CF8012F12D0F8
:100E5000E87A4106490EE972782000F0F1F803B013
:100E6000F0BD4009400108710522732000F01CFA12
:100E700000F052FAE0E7E97A3143ECE7C8020020DB
:100E80000400002038B5044620467D214843C907A8
:100E900008430090042269469C2000F005FA0749A7
:100EA000886800198860064AD078EF2802D90007C0
:100EB000000FD070CC8000F02FFA38BD0400002065
:100EC0000C00002001B569460888C005C00D0880E7
:100ED000682000F0FBF808BD70B5042000F060F851
:100EE0008006C40F134E7078A04202D1B07800285B
:100EF0001DD1114DA87850210843A870A978282049
:100F000000F09EF80A2001F009F9002CA87807D01B
:100F1000BF210840A870A978282000F091F806E0C9
:100F2000EF210840A870A978282000F089F8747093
:100F3000204670BD04000020C802002010B50448FF
:100F4000C17914221143C1713D2000F09DF810BDFC
:100F5000C802002010B5072801D2622110E00F2836
:100F600001D2A2210CE0172801D2E22108E01F28BB
:100F700001D2232104E0272801D2632100E0A3212C
:100F8000064A145C202000F05BF82146222000F085
:100F900057F8C021352000F053F810BD440100205F
:100FA00070B5044672B6104DA96A28464908490032
:100FB000A96221468022114300F0EAFB200601D5F8
:100FC000012100E00021284600F0E2FBFF21284635
:100FD00000F0DEFBF521284600F0DAFBA96A0122C9
:100FE0001143A96262B670BD0038004070B5134D60
:100FF0000446A96A284649084900A9622146802278
:10100000114300F0C5FB200601D5012100E00021BD
:10101000284600F0BDFBFF2C03D1FF21284600F03D
:10102000B7FBFF21284600F0B3FBF521284600F06E
:10103000AFFBA96A01221143A96270BD00380040CC
:1010400070B50D46044672B60E4EB16A3046490878
:101050004900B1626106490E00F09AFB200601D5F5
:10106000012100E00021304600F092FB2946344681
:10107000304600F08DFBA16A01221143A16262B6E5
:1010800070BD00000038004070B50F4E0D4604469C
:10109000B16A304649084900B1626106490E00F064
:1010A00077FB200601D5012100E00021304600F049
:1010B0006FFB29463446304600F06AFBA16A0122E4
:1010C0001143A16270BD00000038004070B5174D9B
:1010D0000E460446A96A284649084900A9626106E5
:1010E000490E00F055FB200601D5012100E000214A
:1010F000284600F04DFBFE2C0BD1FFF747F90446C4
:10110000C1B2284600F044FBE005C10F284600F0BC
:101110003FFB3178284600F03BFB7178284600F011
:1011200037FBA86A01210843A86270BD003800405F
:10113000102300290AD0082201290AD002290BD045
:10114000032902D181699143816170478169194303
:10115000FAE781691143F7E781699943F4E70029C8
:10116000816A02D04908490001E0012211438162ED
:1011700070470029816902D00122114301E049082A
:10118000490081617047012252020029816901D022
:10119000114300E0914381617047000038B501219F
:1011A0008804FFF701FC6846FFF75AFBF1200002B4
:1011B00069460880012088701020054CC8702046C0
:1011C000FFF7F2FA69462046FFF7EEFA38BD000055
:1011D0000004004830B50B790124A4020422202B1E
:1011E00003D1836955022B4383618369A3430C892F
:1011F0002343836183690C78934323438361C369E9
:1012000093430A7B1343C361C26902239A434B7918
:101210001A43C261C2698B79520852001A43C261F3
:10122000C26908231A43C261026A4B89120C120474
:101230001A430262C26A0979520952010A43C26220
:1012400030BD10B5521C00F001F810BDF8B5154DB9
:101250000F460446A96A1646284649084900A9626D
:1012600021468022114300F093FA200601D5012186
:1012700000E00021284600F08BFAFF2C03D1FF216B
:10128000284600F085FAFF21284600F081FA721EF8
:101290003946284600F0AAF9A96A01221143A96239
:1012A000F8BD00000038004010B5521C00F002F8F4
:1012B00010BD0000F8B5174D0F460446A96A164642
:1012C000284649084900A9626106490E00F060FA03
:1012D000200601D5012100E00021284600F058FA3F
:1012E000FE2C0CD1FFF752F80446C1B2284600F09C
:1012F0004FFAE005C10F2846803100F049FA721E0E
:101300003946284600F0DEF9A96A01221143A96294
:10131000F8BD000000380040002070470021017037
:1013200041800822027141710122827101810222F1
:101330004281017370470000F0B5554F002401252C
:10134000042685B0B8424DD101218014FFF744FB3B
:101350006846FFF7E3FF69460E704C80082008716D
:101360004C718D710C81022048810C733846FFF757
:1013700031FF01213846FFF7FCFE01214804FFF749
:1013800013FB01210846FFF727FB0924E40600228E
:1013900004212046FFF74BFA002205212046FFF7E3
:1013A00046FA002206212046FFF741FA00220721D3
:1013B0002046FFF73CFA04A8FFF752FAB02069462E
:1013C00008828D741820C87404A92046FFF7ECF930
:1013D00004A8FFF745FA4020694608828D7448202A
:1013E000C8744EE02B4FB8424FD101210014FFF7D3
:1013F000E7FA6846FFF792FF69460E704C800820B6
:1014000008714C718D710C81022048810C73384633
:10141000FFF7E0FE01213846FFF7ABFE012188040B
:10142000FFF7C2FA01210846FFF7D6FA1A4C00224C
:101430000C212046FFF7FBF900220D212046FFF783
:10144000F6F900220E212046FFF7F1F900220F21C4
:101450002046FFF7ECF904A8FFF702FA0B2000037F
:10146000694608828D741820C87404A92046FFF7C5
:101470009BF904A8FFF7F4F93814694608828D74C3
:10148000CE7404A92046FFF78FF905B0F0BD000027
:10149000003001400038004000040048F0B50E461E
:1014A0000746012189B01C4615460846FFF77CFA1D
:1014B0003F48874211D100210746FEF7B9FF384661
:1014C000FEF7BCFF6846FFF709F83A48009001961E
:1014D000002069460872039516E0354814308742AB
:1014E0002AD100210746FEF7A3FF3846FEF7A6FFE4
:1014F0006846FEF7F3FF2F480196001F009010206A
:10150000694608720020039508744C7448828882EA
:101510000322887512030A83488388833846FEF7BE
:10152000B7FF012202213846FEF7AAFF0121384603
:10153000FEF77EFF09B0F0BD1D482830874211D16B
:1015400000210746FEF774FF3846FEF777FF68462E
:10155000FEF7C4FF18480090019600206946087203
:10156000039516E012483C308742E3D1002107463C
:10157000FEF75EFF3846FEF761FF6846FEF7AEFFF6
:101580000D480196001F0090102069460872002047
:10159000039508744C74488288820322887512036C
:1015A0000A83488388833846FEF772FFC2E700004B
:1015B0001C000240043001400438004008B5094BCB
:1015C00002220121984201D10A2003E0064B9842F1
:1015D00007D10B206B4618705A7099706846FFF758
:1015E00099F908BD00300140003800407CB5144630
:1015F0002F4A0CCA0092019300222E4D2E4E6A7083
:101600002A70B0421ED1802322462C48FFF746FFA5
:101610002A480023224669461430FFF73FFF34462C
:101620003046FFF7CBFF01212046FFF7ACFD69787C
:101630000029FDD029780029FDD000212046FFF7A0
:10164000A2FD7CBD1E4B9842FBD11C482430826910
:1016500052085200826182698026B24382616A46E2
:101660004262C461826901252A4382614268AA43B9
:1016700042604268324342600161846041682943AC
:10168000416098695A15104398610C481C380168EC
:101690008904FCD501214903416001688903FCD517
:1016A0000121490441609869904398617CBD000024
:1016B000342B0008A7020020003001401C0002402B
:1016C00000380040FEB50D4600212D4E2D4F7170A3
:1016D00014463170B8421ED1002369462A48FFF7EC
:1016E000DDFE29488023224629461430FFF7D6FE26
:1016F0003C463846FFF762FF01212046FFF743FDD5
:1017000071780029FDD031780029FDD000212046D4
:10171000FFF739FDFEBD1D4B9842FBD11A4824301E
:101720008169490849008161816980221143816191
:101730004562C461856901210D43856145688D431A
:1017400045604568954345606A4602618460426829
:101750000A43426098694A02104398610A481C385B
:1017600001688904FCD501214903416001688903AE
:10177000FCD5012149044160986990439861FEBD00
:10178000A7020020003001401C0002400038004049
:10179000002201600A4B03E01146521C994202D814
:1017A0008168C907F8D0002103E00A46491C9A4223
:1017B00002D882689207F8D54068C0B2704700002E
:1017C000FFFF00003CB500242F48009401940168FD
:1017D00001231B0419430160590005252D020268ED
:1017E0000A400192009A521C0092019A002A02D1EA
:1017F000009AAA42F3D10168890342D501210191DF
:101800007D210901491EFDD20199012938D11F49C5
:101810000A68102422430A600A68D208D2000A60CB
:101820000C68022214430C604168416041684160C9
:101830004168540221434160416803242404A143C8
:1018400041600168124C21400160416819434160C8
:10185000016805239B06194301600168D3051943FC
:10186000016001688901FCD54168890889004160EF
:1018700041681143416041680907890F0229FAD183
:101880003CBD01943CBD000000100240002002401D
:10189000FFFF8F000249086008680028FCD17047EC
:1018A000AC02002003480168002902D00168491EEB
:1018B00001607047AC02002070B50446FFF7C8F81D
:1018C0002146FEF739FC0C490025ED43401E8842B5
:1018D00003D9012000280AD0FEE7084C60610321EB
:1018E0002846FFF73FF80020A06107202061002173
:1018F0002846FFF737F870BDFFFFFF0000E000E06B
:1019000010B51048016801221143016041680E4A78
:101910001140416001680D4A1140016001680122D7
:101920009204914301604168C322120491434160D3
:101930000168074A114001609F2109048160FFF797
:1019400041FF10BD001002400CC0FFF8FFFFF6FE83
:10195000FFFF8F0070B51D4C0121204600F0D2F82A
:10196000002831D00121204600F091F818490120CB
:101970000D460870103D2878022825D128790128C5
:1019800006D1E889401C80B2E881A98988421BD829
:10199000687801280CD1FEF7F9FBE978AC78091BCF
:1019A000491CFEF7DFFB0819E861C0B201F03AF804
:1019B000FFF792FA0748FFF719F90748817A802064
:1019C00001437720FFF760FB70BD00000044014039
:1019D00088010020FF030020C802002010B5074C3A
:1019E0000121204600F08EF8002806D00121204673
:1019F00000F04DF802490120487010BD0048014038
:101A00008801002010B50022012100F085F810BDEA
:101A100010B50122114600F07FF810BD3EB5054615
:101A20000320144601214004FEF7D6FF284600F0AB
:101A30003DF8684600F0BAF8FFF70AF80949FEF7E2
:101A40007BFB6946401E088000208870641E01945C
:101A500008818872284600F06FF80121284600F0BE
:101A600012F83EBD40420F0010B5012100F013F8FE
:101A700010BD10B50446002100F00DF800212046ED
:101A800000F052F810BD02698A4302617047026992
:101A90008A43026170470029016802D00122114384
:101AA00001E049084900016070470000134910B582
:101AB000431A0A1588421BD00BDC1149401811D07B
:101AC000801A11D02521C90288420AD10120C00202
:101AD00005E0981A0FD0904203D10120800400F055
:101AE0000DFD10BD012000E0022000F0FDFC10BD46
:101AF00001200004F3E701204004F0E7004001402A
:101B0000000000C002690A4204D0C068084201D047
:101B10000120704700207047002AC26801D00A43A4
:101B200000E08A43C260704701229207904200D0D1
:101B300089B241627047000010B5026803231B029E
:101B40009A430B891A430260144A904206D001233B
:101B50009B07984202D0124B984205D1036870242B
:101B6000A3438C7823430360904205D00D4A9042F2
:101B700002D00D4A904203D1026B8B7A1A43026362
:101B8000C26A4B681A43C262826A09880A43826247
:101B9000416901221143416110BD0000002C014048
:101BA0000004004000440140004801400021C943B6
:101BB0004160002101800181817081727047416123
:101BC00070478269520852000A43826170478068F8
:101BD000084000D00120704770B50446C0690D462A
:101BE0003021884329790843E061E0690421AA791A
:101BF00088431043E061E0692A7A8008800010433E
:101C0000E061A069182290436A891043A061A0692D
:101C10008843297B0843A0610A48844202D1FEF729
:101C200007FF01E0FEF7F4FE06462968FEF784FA96
:101C30000009206230462968FEF77EFA0007000F8F
:101C4000606270BD003801404068C0B27047C9B2E0
:101C5000016070474B21C9010160302101710021F1
:101C6000817101721822428101737047F0B50E46EE
:101C700085B047490A9F1C461546884240D101213C
:101C80008803FEF7A9FE6846FFF7E4FF6846009662
:101C90008580C48007810021818118243C4D4481C6
:101CA00069462846FFF798FF01214804FEF77CFEAD
:101CB00001210846FEF790FE0921CE06012230469A
:101CC000FEF7B5FD01220A213046FEF7B0FD04A85B
:101CD000FEF7C6FD69156846018201218174C4744E
:101CE00004A93046FEF760FD2915684601820421EB
:101CF000C17404A93046FEF757FD0121284642E091
:101D00002449884241D101214804FEF759FE684622
:101D1000FFF7A0FF009668468580C48007810021F8
:101D2000818118241B4E448169463046FFF754FFD9
:101D300001214804FEF738FE01210846FEF74CFE5B
:101D40000927FF06012202213846FEF770FD012215
:101D500003213846FEF76BFD04A8FEF781FD04253C
:101D60006846058201218174C47404A93846FEF7CF
:101D70001BFD082168460182C57404A93846FEF798
:101D800013FD01213046FFF71CFF05B0F0BD000038
:101D900000380140004400400FB410B503A9044BC3
:101DA000044A029800F018F810BC08BC04B01847A8
:101DB00011250008C402002002E008C8121F08C153
:101DC000002AFAD170477047002001E001C1121FBC
:101DD000002AFBD170470000FFB58FB00F460446C4
:101DE000002606E025280AD0129A11999047641C13
:101DF000761C20780028F5D1304613B0F0BD0025C0
:101E000001219F4A009500E00543641C23780846A1
:101E1000203B98401042F7D120782E2815D104207D
:101E200005436078641C2A280AD101CF641C009005
:101E30000BE000990A22514330394018641C00908D
:101E40002078014630390929F3D920786C280ED042
:101E500004DC4C2813D06A2812D104E074280ED078
:101E60007A280DD10BE001204005054307E0012150
:101E7000090562780D43824201D16D18641C641C0F
:101E80002078692849D008DC0028B5D058286CD0C3
:101E900063280FD0642808D13FE070286AD07328E7
:101EA00011D075285FD078285FD0129A1199904789
:101EB000761CE3E03878694608720020487202A870
:101EC0000190012003E0386801900020C0433F1DCD
:101ED00069070CD5002500E06D1C00998D420FDAD2
:101EE0008542F9DB0199495D0029F5D108E000251B
:101EF00000E06D1C8542FCDB0199495D0029F8D1A9
:101F0000761907E0019801990078491C0191129A0D
:101F1000119990476D1EF5D2B0E00A200290002181
:101F20006802400F039102280CD001CFC1178446EC
:101F300000290DDA60460A4640420021914184465C
:101F40002D2008E0FF1DFF08FF0003CF8446EFE7C8
:101F5000280504D52B206A46107401203DE0E807CF
:101F60003BD02020F7E70A2000E010200021039159
:101F7000029007E010200290002104200543082071
:101F8000039100906802400F022811D001CF002178
:101F9000844600200D90280720D52078864670289A
:101FA0000CD0029A1020039B42401A430CD015E03B
:101FB000FF1DFF08FF0003CF8446EAE740206A4682
:101FC000107401200D900CE06046084306D03020CC
:101FD0006A4610747046507402200D90207858287C
:101FE00004D028A001900DA80E900DE02AA0F9E7DA
:101FF0006046039B029AFEF70CF9019B84469B5CAA
:102000000E9A521E0E92137060460843F0D10E983D
:1020100005A9081A20300190680701D4012000901A
:1020200000990198814201DD081A00E00020002596
:10203000009006E004A8129A405D119990476D1C2B
:10204000761C0D988542F5DB04E0129A3020119938
:102050009047761C0099481E00900029F5DC08E0A6
:102060000E980E990078491C0E91129A119990477A
:10207000761C0199481E01900029F1DC641CB8E629
:10208000092801003031323334353637383961624E
:102090006364656600000000303132333435363712
:1020A00038394142434445460000000010B5194804
:1020B000194B01785A6A0907090FFF2A18D85B796A
:1020C000002B01D0012B01D1022911D8002906D003
:1020D00001290FD002290FD003290FD008E00E49A3
:1020E000801C3031FEF788F8002801D1012010BD96
:1020F000002010BD0F2302E0552300E0FF23002144
:1021000005E04418A4789C42F2D1491CC9B291421E
:10211000F7D3EBE7FE0200207801002010B504465B
:10212000054804490068FEF707F86043FDF7D4FF4F
:1021300010BD000000093D0000000020F8B58E4DE4
:102140000C461646696AC0221140B206920E9446A9
:1021500011432A4624321AC20127AF720022AA82F2
:102160002A78002A08D0002808D0032849D0012A5C
:1021700075D0AF820220F8BD0520F8BD00F066F9E9
:10218000002C0AD0012C12D0022C15D0032C1FD009
:10219000042C20D0052C22D02CE0002E2AD10020A7
:1021A0006862687168702871A881E881B1E0032EC7
:1021B00020D8B0016862ACE0012E02D0022E19D105
:1021C00002E00020687100E06F7100F01DFAF8BDB8
:1021D000012E0FD89DE0002E0CD106200DE0FF202F
:1021E000FF30002E09D06549012E08D0022E04D000
:1021F000032E04D0AF820420F8BDA88289E0A98212
:1022000087E0002C3ED0012C17D0022C18D0032CD4
:1022100018D0042C19D0052C22D0062C24D0142C34
:1022200024D0152C27D0162C28D0172C28D00020ED
:1022300068702871A88128726BE00020687068E0DF
:102240006F7066E00020287107E060469907800003
:10225000890F08430A212F714843A88159E01CE0E7
:1022600070B2FEF71FFD54E06B7252E0012144484A
:10227000FEF7A4FD4DE0FEF70FFC4AE02F7248E0A8
:102280000020D8E7012A00D173E7688A0121C90339
:102290000843A88200F0DAF8CFE7272C02D9AF82F2
:1022A0000120F8BD00226A82012802D002280FD046
:1022B0002FE0FF2102313348FDF793FF012000F0AA
:1022C000ABF9A88CC1B27020FEF7BAFE04201FE063
:1022D000FF2902D9AF820320F8BD1807000F294A51
:1022E000002B1070517005D0012B03D0022B01D0B0
:1022F000032B05D1244A507091707020FEF7A0FE88
:10230000287A002807D0A88DC0B2FEF723FE02204D
:1023100028700020F8BD002000F07EF91B4C2046FC
:10232000FFF7A7FB2046FFF76DFB687900216B6A7A
:102330000A46012802D0002802D002E0582100E01D
:102340005021DB005918012800D14908F931521CED
:102350000F4B104658438142F9D818464243012199
:1023600020462A62FFF75AFB2046FFF751FB204622
:10237000FFF77AFBCBE700007801002090420000D5
:10238000FFFF1F00FE020020FE030020004401406A
:102390007102000010B5810402068307840B890EC8
:1023A000920E9B0F2046FFF7C9FE10BD034902465F
:1023B000887A00238B72898A116070477801002027
:1023C000F8B51E4C1C4A01212046FFF727FB1C4D87
:1023D000FF22053201212846FFF720FB1520694620
:1023E000087001264E708E706846FEF793FA16202C
:1023F000694608706846FEF78DFA2046FFF708FB2D
:102400002846FFF705FB2046FFF72EFB2846FFF77F
:102410002BFB0C4C0025A56100F0F6F8002801D03C
:102420000420F8BDA5722670074865620169102274
:10243000114301610020F8BDC409000000440140BF
:10244000004801407801002000ED00E010B500F0E8
:10245000BDF902490120087010BD0000780100207C
:10246000F8B516490869102210430861144CFF277B
:1024700002370025A618A079012812D1A57120786D
:1024800004280ED1E079012807D1FFF70FFE0028BC
:1024900003D0E571608A401C608239460948FDF727
:1024A000A0FE3078012807D070780128E3D175703C
:1024B000A069401CA061F8BD3570DCE700ED00E0CC
:1024C00078010020FE02002006490A6882430A6063
:1024D0004A6882434A608A6882438A60CA68824343
:1024E000CA6070470004014003490A6902430A6157
:1024F0000A6982430A617047001002400349CA68B2
:102500000243CA60CA688243CA6070470010024032
:1025100070B5074D0446C1B22846FFF798FB01216C
:102520002846FFF754FB0028F9D0204670BD000074
:102530000038014008B57D20C000FFF7BDF900203C
:1025400003464B2100903022C9010E48FFF78EFB55
:10255000FEF758FB0CA20FA111A0FFF71DFC1BA05A
:10256000FFF71AFC1FA0FFF717FC18A0FFF714FCD9
:102570000020FEF715FD01461FA0FFF70DFCFEF73A
:1025800049F800000038014030393A31373A3137E4
:1025900000000000446563203136203230323000C4
:1025A0000D0A52616661656C5F424C455F4D4D336B
:1025B000322044656D6F2072756E2E204E6F77202D
:1025C00069732025732025730D0A00002D2D2D2DF4
:1025D0002D2D2D2D2D2D2D2D2D2D2D2D2D2D2D0D4B
:1025E0000A0000002020424C452053746172742E72
:1025F0002E2E2E2E0D0A0000436869705F49443D5F
:10260000307825780D0A000010B500F0DFF8FEF7ED
:102610005BFA002010BD0000F1B5684C86B03C208C
:10262000E071E1793D20FEF70BFDE07A4026304372
:10263000E072E17A7820FEF703FD207A4006400E32
:102640002072217A6920FEF7FBFC0D21AC20FEF7F9
:10265000F7FC0021FA20FEF7F3FCFF21A520FEF78E
:10266000EFFC00219B20FEF7EBFC6020FEF798FCBE
:10267000534DC008298DC00049000843401CC1B219
:102680006020FEF7DDFC00219F20FEF7D9FC8021B1
:102690006620FEF7D5FCA07ABF273840A072A17A49
:1026A0007720FEF7CDFCE07AFB210840E072E17A6A
:1026B0007820FEF7C5FC00F079F97F213E20FEF777
:1026C000BFFCA88DC0B200F0ADF9E07AF721084058
:1026D0006979C9000843E072E17A7820FEF7B0FC1E
:1026E000E07AFB210840E072E17A7820FEF7A8FC4E
:1026F0003448E96A405CFEF7B9FA29206946087057
:1027000041204870762088707120C87004227A2099
:10271000FEF7CAFDFEF7B6FAE07ADF210840E07264
:10272000E17A7820FEF78CFC069801280CD0207BFB
:1027300038402073217B7920FEF782FCA07A384054
:10274000A072A17A772035E00025802069460395A4
:10275000087408714D711C4F8D713878662802D944
:102760002020087200E00E72CD710420F72108408D
:10277000134906224979C90008436946487201A9EC
:102780007320FEF791FD052203A96220FEF78CFD60
:102790003878662809D9A572A17A7720FEF750FC0F
:1027A000A672A17A7720FEF74BFC207B3043207382
:1027B000217B7920FEF744FC07B0F0BDC802002061
:1027C00078010020D60200200400002010B500F09F
:1027D000EDF802490020488210BD00007801002079
:1027E000F8B50C460022164D164E51006B5A834226
:1027F00001D1B05C1CE083421CD24F197F88874214
:1028000018D957007F197F8899B2791AB5186F784F
:10281000B55C7A1BC01A42430A205043FDF7A2FC64
:1028200080B20A21FDF788FC052900D3401C40191D
:102830002070F8BD521CD2B2052AD6D3F8BD0000D4
:102840006C01002029000020F8B5002631463D200B
:10285000FEF7F6FBFF213E20FEF7F2FBFF215B2097
:10286000FEF7EEFB01215820FEF7EAFB3E484178D7
:1028700004221143417041782420FEF7E1FB20201F
:10288000FEF7F4F90020FEF787FA72B60024374FFE
:102890007D1D385D00F0C6F800217720FEF7D0FBE3
:1028A00080217720FEF7CCFB7D20C000FFF736FCAF
:1028B0000120FEF775FB8006800E285500F05AF8BF
:1028C000641CE4B2052CE4D32849491D48780978F2
:1028D00088420AD9254A521D9178814205D9D0787B
:1028E000884202D9117981420BD824211F48401D0A
:1028F000017026214170292181702B21C1702D2169
:102900000171002418E0002C16D06700184839180F
:102910004039CD8F0CE015489830815D12480E305B
:1029200009182846FFF75CFFAD1CADB2761CF6B265
:102930000F48C05BA842EED8641CE4B2052CE2D379
:102940000A48401D017908482E30C171FF213E2000
:10295000FEF776FBFEF7F2FA62B602220349653112
:102960005B20FEF7A1FCF8BDC80200202400002077
:102970006C01002070B580260B4D72B62C7B62B6C0
:10298000214631437920FEF75BFB72B6287BA042DB
:1029900003D121467920FEF753FB62B672B6287B3D
:1029A000A04262B6E9D170BDC802002010B5064849
:1029B000047B2146802001437920FEF765FB2146F8
:1029C0007920FEF761FB10BDC802002010B5094C4C
:1029D000607A802108436072617A6B20FEF730FBD9
:1029E000607A4006400E6072617A6B20FEF728FB29
:1029F00010BD0000C802002010B5094C607A4021CB
:102A000008436072617A6B20FEF71AFB607ABF217F
:102A100008406072617A6B20FEF712FB10BD000067
:102A2000C802002070B5064D297B8C09A4018006E0
:102A3000800E044321467920FEF726FB2C7370BDDF
:102A4000C8020020F3B53A4E0121B08909030843BA
:102A50004F00B84381B08843B0810120FFF75EFB8F
:102A6000019845066D0E00242806B08903D5012182
:102A7000C903084301E04004400CB0810120FFF786
:102A80004DFBB0893843B0810120FFF747FBB08987
:102A9000641CB843B0816806050EE4B2082CE3D389
:102AA0000198C50900242806B08903D50121C9036E
:102AB000084301E04004400CB0810120FFF72EFBE9
:102AC000B0893843B0810120FFF728FBB089641C2E
:102AD000B843B0816806050EE4B2082CE3D3029D2A
:102AE00000242806B08903D50121C903084301E069
:102AF0004004400CB0810120FFF710FBB08938433F
:102B0000B0810120FFF70AFBB089641CB843B08193
:102B10006806050EE4B2082CE3D30120FFF7FEFAA5
:102B2000B0890121090308434004400CB081FEBD77
:102B300000040048FFFFFFFFFFFFFFFFFF00000052
:102B40000000000000000000FF0000000000000086
:102B500000000000742B000800000020C8020000E4
:102B6000DA020008C42D0008C8020020580700003F
:102B7000C81D000811166CDC026601821A40114261
:102B800081402A82A45A05D28E7A05C28F7A052FF7
:102B90002509121C2720018128101C80DFA4E0F3E6
:102BA0007F052110F0A03FBBEF291780FFFFFF2713
:102BB00062600F70D288AC91DEC0146042FC3F6A44
:102BC0000122F02406A26A100AFF7970D2EA0A1ED6
:102BD0000A2315A01F55A11244125214061E1E16D8
:102BE000068E240144700850500111FFF860628085
:102BF00027555555FFFF4F120425294176711010B6
:102C0000172428292A2B393D696B777879A6252046
:102C1000270102030405060708090A260B0C0D0EFE
:102C20000F101112131415161718191A1B1C1D1E3C
:102C30001F20212223242712DB201DCE01CD02B02C
:102C400003A704E005F906C207B7087109E80A6E90
:102C50000C720D230E8C0E100D8101F6028904F604
:102C6000057A077907180F09970A2C0CB90D4A0F36
:102C7000DF108C128D022110267B01F5027B04E708
:102C8000055C07F709380AA00BF80C450E770F9181
:102C900010881189118B1120406080A0C0E0091EAE
:102CA00008500B620976098A099E09B00919980132
:102CB0001A4AC424911091FFC1FBE84C90728BE733
:102CC000B3518963AB232302841872AA612F3B514D
:102CD000A8E53749FBC9CA0C18532CFD45E39AE611
:102CE000F15DB0B61BB4BE2A50EAE90E9C4B5E57AC
:102CF00024CCA1B759B887FFE07D742648B9C5F345
:102D0000D9A8C4B1D5911101420C39D5B0979D28ED
:102D1000D4F29BA4FD6465068C2996FEA2714DF346
:102D2000F82E58DB0D5A5F1528F57407CE25AF2B0A
:102D300012E6D0DB2CDCC37FF03E3A13A4DCE2F9D0
:102D40006C54E2D8EAC888D06F21869C6AD8CB4EF2
:102D5000146AF94DD27EB23203C6144B7FD1B8A6A5
:102D6000797C17ACED06ADAF0A947ABA03E792D737
:102D7000150973E86D16EEE13F781F9D09526EF15B
:102D80007C362A716C7564448010434E35EC65279F
:102D90000AB5FC26693F599901638AA5BF685CD3CF
:102DA0003CBE0BD67683D657054A3DDD8173C9EB11
:102DB0008A8439F4360BF72D0102030404850607D3
:042DC00008090000FE
:04000005080000C12E
:00000001FF
