:020000040800F2
:1000000088180020E1000008070100080901000825
:1000100000000000000000000000000000000000E0
:100020000000000000000000000000000B010008BC
:1000300000000000000000000D01000821830008FE
:100040001101000811010008110100081101000848
:10005000110100081101000811010008F50900084C
:1000600000000000110100088D070008C10700080A
:100070001101000811010008110100081101000818
:10008000110100080000000000000000110100083C
:100090000000000011010008110100081101000812
:1000A0000000000011010008110100081101000802
:1000B00011010008000000001101000811010008F2
:1000C0000448854600F092F800480047ED8F00088C
:1000D000C046C046881800200138FDD17047000096
:1000E0000C4880F308880C480168090E0B4A9142BD
:1000F00005D10B480B4901600B480C4901600C48C5
:1001000080470C480047FEE7FEE7FEE7FEE7FEE714
:10011000FEE7000088180020040000001F00000017
:100120001810024001000000000001400000000023
:100130007D830008C100000830B50B460146002051
:100140002022012409E00D46D5409D4205D31D46DD
:100150009540491B2546954040191546521E002DD5
:10016000F1DC30BD70B500242546002801DA0124F9
:100170004042002901DA01254942FFF7DDFFAC4288
:1001800000D04042002C00D0494270BDF0B51FB4F1
:100190000646002082B005464024019100901BE0F5
:1001A000019922460F46304600F042F8049A059B1A
:1001B000801A994110D310461946224600F028F8BB
:1001C000361A8F410197224601200021009F00F03E
:1001D0001FF838184D4100902046641E0028DFDCCF
:1001E000019B00982946324607B0F0BD064C012518
:1001F000064E05E0E36807CC2B430C3C98471034CF
:10020000B442F7D3FFF760FFFCA400081CA5000868
:1002100010B5202A04DB0146203A9140002010BD91
:10022000914020239C1A0346E3401943904010BD9F
:1002300010B5202A04DB0846203AD040002110BD2A
:100240000B46D340D0402024A21A914008431946BF
:1002500010BD70B58C180578401C6B075B0F01D181
:100260000378401C2A1106D10278401C03E006786E
:100270000E70401C491C5B1EF9D12B0705D40023CE
:10028000521E0DD40B70491CFAE70378401CCB1AA0
:10029000921C03E01D780D70491C5B1C521EF9D5A1
:1002A000A142D8D3002070BDFFB581B00A9C0E4694
:1002B00017461D46019800280AD104F03BFB002890
:1002C00006D018480078002804D0012005B0F0BD01
:1002D0000520FBE73878C00722D0134A1B20107195
:1002E000E01C10700020507004219170D070707864
:1002F000507130789071002004E0295C1318D97196
:10030000401CC0B2A042F8D3E41DE2B206490198F5
:1003100009F0C4F8002801D00120D7E70020D5E774
:100320000820D3E7B5040020701200207047704702
:1003300010B5134886B00EC86C460EC407C807C473
:10034000104C0021204607F0F0FB204607F0E0FCAF
:100350000121204607F0D2FB0021204607F0CEFB0A
:1003600000231A466946084807F084FD0648002322
:100370001A4603A9143007F07DFD06B010BD000039
:1003800078990008003800404400024008B505484C
:1003900009F02AF9002069460870684609F0E6F875
:1003A00008BD00004D040008F8B502F039F8234CF0
:1003B0006178002919D001293FD002293DD1A188B7
:1003C000FF22411A89B29132914236D36060A078FF
:1003D000C14389062FD080282DD200220525184937
:1003E0001F2808D84D708A700BE000F07FF90120BB
:1003F0006070802020E0FA26FF233F2804D84E704A
:100400008B70CD700A710AE05F2802D84E708B7035
:1004100003E07F2803D84D708A70CE700B710948B5
:10042000074B00790090084A06492078FFF73CFF07
:10043000002802D1A078401CA070F8BD0400002064
:100440003C000020E59B0008440000200EB5244A33
:10045000030008F0B7F80E0E080E0F0E0E2620311E
:100460000E0E0E383E0E5078012802D11DA008F065
:1004700099F80EBD48781070022050700B794A79B7
:100480008879009002930192CB790A7A497A19A06F
:1004900008F088F80EBD002050704A78097820A036
:1004A0001AE0CA888888009001924B884A780978B7
:1004B000244808F077F80EBDCB788A78097822A016
:1004C00008F070F80EBD08782849096809F076F838
:1004D0000EBD4A78097826A008F064F80EBD000029
:1004E000040000204164766572746973696E672E3A
:1004F0002E2E0A00436F6E6E656374656420746F00
:1005000020253032783A253032783A253032783A20
:10051000253032783A253032783A253032780A0060
:10052000446973636F6E6E65637465642C2049441F
:100530003A25642C20526561736F6E3A30782558E5
:100540000A000000B0A400085354415455533A2007
:1005500025642C205458205048593A2025642C20DA
:100560005258205048593A2025640A0000000020C3
:1005700041555448205265706F72742C2049443A9A
:100580002564202C205354415455533A25640A00C5
:10059000014A12681047000034030020014A5268E3
:1005A0001047000028040020014800687047000040
:1005B0000C04002010B503484068002801D000F06A
:1005C000FDF910BDF0030020F8B500F0BFF80446B7
:1005D0000125230007F0F6FF0504080C1910180088
:1005E000204604F02DFD10E0204601F01FFB0CE03A
:1005F000204601F051FA08E000F0B8F8002804D1D4
:10060000204600F0A7FB00E009251B480168491CB3
:10061000016008F02DFA00F0A9F8012807D1174C65
:10062000E07E04F087F9012803D007F0D1F82846CE
:10063000F8BD01251149FB22E039114801F0BCFA4F
:100640000E4E104AE03EB178E07E8900515888474E
:100650000028ECD1B07805280BD13079132808D1C7
:10066000E07E317A00020843009069460520FFF7DA
:1006700095FF07F0ADF8DAE784030020511200205F
:100680007012002084A4000810B572B608F0C2FBF6
:1006900008F0ACFB08F0D8FB00211920800106F01F
:1006A000F5FE01F00BFA08F0DFFB08F0D9FB06F0CD
:1006B00035FD07F02FF862B60024FF21204608F030
:1006C000AFFA641CE4B2002CF7D010BD1FB50020B7
:1006D0006A46107020215180490291800721517390
:1006E00090736C460FCC08F015FE1FBD10B5FFF7D8
:1006F000EDFF0C21054808F0D1FD04480A210C301B
:1007000008F07EFF08F0E7FD10BD000054990008D6
:100710000C490A780C49012A097804D9521E930021
:10072000D218511889B21E2909D31E3929225143E2
:1007300089B2814201D30020704701207047012017
:1007400070470000530300203803002000200649B2
:1007500072B6C20052185268002A04D162B6401C18
:10076000C0B20528F4D37047F40D00200348C07EC2
:10077000FF2801D00120704700207047511200204F
:1007800001480078704700004703002070B5202022
:1007900000F056F80124094D002803D06C70202089
:1007A00000F02AF801267602304600F049F80028C9
:1007B00003D02C70304600F01FF870BD0C000020F4
:1007C00070B501267603304600F03AF80124094D51
:1007D000002803D06C70304600F00EF80126760435
:1007E000304600F02DF8002803D02C70304600F081
:1007F00003F870BD0C0000200149486070470000FC
:10080000000002400268520852000A43026070472A
:1008100010B501684908490001600021016041608C
:100820008160C160C0B205210838FFF785FC0F2147
:100830008140024842681143416010BD00000240FF
:1008400003490968014201D0012070470020704728
:1008500000000240002A026801D00A4300E08A43F7
:100860000260704710B50A7A8B7D4C7C1A430B7C72
:1008700023431A434B8A1A438B8A1A430B8B1A431E
:100880004B8B1A430368094C23401A4302600268E9
:100890000123DB039A438B8B1A430260CA684260D0
:1008A0000A6882604968C16010BD00000F80FFFFC8
:1008B0000021016041600172C16001744174418294
:1008C000818281750183418381837047F0B583B054
:1008D00006460C36057A8C21364A69438C18C17A53
:1008E0001430029003292BD0042927D13248AF00BD
:1008F000C559042228461E30029901F08EF9294676
:100900001A31204608225C30019101F086F9082254
:100910003146019801F081F92946284612312230EA
:1009200008F0A2FEB020287123480021C1512846BA
:1009300007F0C8FC2046643008F0C3FE03B0F0BDE9
:100940003046163004F0C8FC3146204608220A31F1
:10095000643001F062F931462046042212315C30E5
:1009600001F05BF900F080F907466E203871BD7226
:1009700038460A2231460B3001F04FF9042138463F
:1009800007F0A0FC304608F09CFE204608223146C5
:100990006C3001F042F9204604226030029901F0E7
:1009A0003CF92B460C220421304604F065F903B0D3
:1009B000F0BD0000FC0E00207803002010B50B48AD
:1009C000446801688C4203D100214160016001E06C
:1009D0002168416020795038C0B20549800009582B
:1009E00020468847204600F089F810BDF00300201B
:1009F000DCA1000870B5FF240134204600F018F88F
:100A000000280CD0204600F00DF8054D01E004F060
:100A10008DF82146284600F000F90028F7D170BD76
:100A2000000400480149486170470000000401408B
:100A300005494A69024204D00968014201D00120F7
:100A400070470020704700000004014000B50346D5
:100A5000006808F003F9987900281AD0197910482D
:100A6000002909D041681A68114341605979022967
:100A700007D000290ED008E001681A681143016010
:100A8000F4E781681A6811438160C1681A681143EC
:100A9000C16000BD81681A681143816000BD00001B
:100AA000000401408B08084A10B59B009A1893680F
:100AB0008907090F0F248C40A343936093688840F3
:100AC0000343936010BD00000000014072B600288F
:100AD00000D0FEE762B6704772B6002803D0064A1F
:100AE0005168884201D162B6704701605060107849
:100AF000401C107062B6704738030020002808D0F0
:100B0000044A5168884204D0016050601078401C4B
:100B1000107070473803002010B5014600220029EC
:100B200006D0521CD2B20B68002B01D01946F6E752
:100B3000002908D072B6044B5C680C6058601878C5
:100B40008018187062B610BD380300200146084BAB
:100B5000002907D01A78521C1A700A68002A01D09E
:100B60001146F5E7002902D05A680A6058607047BC
:100B700038030020F0B5CA7813071B0FD20601D541
:100B80008A78134300229406240E0E88012595408E
:100B90002E4207D005680F26A640B5431E46A64044
:100BA00035430560521CD2B2082AECD30A88071DCF
:100BB000120A944600229406240E012595406646AA
:100BC000354207D03D680F26A640B5431E46A640D5
:100BD00035433D60521CD2B2082AECD3CA78282A89
:100BE00006D0482A03D1026909880A430261F0BD90
:100BF000426909880A434261F0BD4B0710B5DB0E1C
:100C0000082901D2203000E024300F249C400168E4
:100C10009A40A1431143016010BD8068084000D094
:100C20000120704741617047016170470021C9434D
:100C30000180022181700421C170704772B6094A97
:100C40005068002809D01178002908D0491E117079
:100C5000016851600021016002E0002000E00020F6
:100C600062B670473803002000B5094A5068002872
:100C700009D01178491E11700146086850600020A3
:100C80000860084600BD1020FFF720FFF9E70000CC
:100C90003803002030B4164D6C68002C1DD000289D
:100CA0001DD001222146292809D9521CD2B20B6835
:100CB000002B04D019462938C0B22928F5D8292894
:100CC00011D8287813460A3398420AD3801A28701C
:100CD000086868600020086006E0002404E0002442
:100CE00002E0002400E00024204630BC70470000F1
:100CF0003803002030B572B6154D6B68002B04D058
:100D0000002804D0012219460BE000231CE0002338
:100D10001AE0521CD2B20C68002C04D021462938AB
:100D2000C0B22928F5D829280DD8287814461E34B1
:100D3000A04206D3801A2870086868600020086006
:100D400002E0002300E0002362B6184630BD000038
:100D50003803002010B506F029FD044620796038DC
:100D6000C1B2880003490958204688472046FFF74A
:100D7000B3FE10BD28A3000810B5037A002B14D1D0
:100D80000A49097801290FD0417A15290CDA052979
:100D90000AD0132908D101220221093003F050FFA3
:100DA000B121002003F0BFFF00BF10BDFC0E0020EA
:100DB00070477047704700BF7047000070B572B64B
:100DC0001F49497A62B68906890F0BD00C24FFF7B8
:100DD00035FF61210171D3218172C472042107F0B2
:100DE00053FA70BD00240646164D0836E000021B7B
:100DF000A85CFC2806D050190722314600F0BCFE42
:100E0000002803D0641CE4B2042CEFD3042C09D1D5
:100E10000024E000001B285CFC2807D0641CE4B21E
:100E2000042CF6D3042C09D00024D0E7E000001BEA
:100E300040190722314600F0BFFEF3E70724C6E75A
:100E400050030020A80F002010B572B60E48407A5B
:100E500062B68006800F0BD00C24FFF7EFFE6121F5
:100E60000171D2218172C472042107F00DFA10BD04
:100E70000020064AFC21C3001B1AD154401CC0B2FA
:100E80000428F8D30024E8E750030020A80F00202E
:100E9000FEB504466689A089864205D0301846080A
:100EA000012006436681A681FFF7C8FE054621465C
:100EB00028460C31103006220291019000F07CFE91
:100EC000A0890A214843A081208AC0002082277A75
:100ED0008C20214978434418D521002003F023FFBA
:100EE00020462A3006220299009000F045FE002894
:100EF0002BD00020194942008A5AB24203D8401C24
:100F0000C0B20728F7D3401C6873E08B001DE8824D
:100F100028463B460B2200210D3003F091FE6C2049
:100F20002871284606220C30019900F06AFEEF7203
:100F30000B49B8000D50E08B001D2086A6840622C8
:100F40000299009800F038FEFEBDB0202871002103
:100F5000284607F099F9FEBDFC0E0020E69E000829
:100F6000780300207047704770B50546FFF766FEAE
:100F70000446A87A2946C01CC2B22046083108306F
:100F800000F01AFEA87A6072A87A0021072801D81A
:100F900021200155EF202071EA7A2B7A8C20204DF8
:100FA00058434019022A03D14225057080304181FF
:100FB000184603F0BFFC002816D01A49D800401884
:100FC00072B6016800290CD0921E130007F0FAFADD
:100FD000100D12121212242424121224122424247A
:100FE00012244460046062B670BD416821604460B0
:100FF00062B670BD4268E57AD37AAB4202D3226012
:10100000446007E08A4200D10460416809682160B9
:101010004068046062B670BD0C60046062B670BD6A
:10102000FC0E0020B403002070B50546FFF706FE55
:1010300004465120207129462046202208310830DC
:1010400000F0BAFD204607F02FF970BDF8B5067A1A
:101050008C201649704345180027572047557920A2
:101060004755FFF7EBFD044661212171DD21A17297
:10107000E772267320460D3069784A070621002A58
:1010800008DA03220270417033460222112103F074
:10109000D7FD05E00170334601220D2103F0D0FD9C
:1010A0000421204607F0F0F8F8BD0000FC0E0020F7
:1010B00070B50546FFF7C2FD04465420207129464D
:1010C000204611220831083000F076FD204607F056
:1010D000EBF870BD70B50546FFF7B0FD0446522031
:1010E00020712946204600220831083000F064FDB6
:1010F000204607F0D9F870BD00BF704710B5FFF764
:101100009DFD61210171C12181720021C1722C22DA
:101110000273417301218173042107F0B5F810BDFA
:1011200010B5FFF78BFD044661202071C620A07228
:101130000020E0722046082209490C3000F0FCFC37
:10114000084800784006400F072803D1207B40085C
:10115000400020730421204607F096F810BD0000DF
:10116000D69E00084703002010B50446FFF766FD31
:10117000217A61220271EB2282720022C272017313
:101180008C225143084A891880314A784273897801
:1011900081730323042A00D14373042900D183738C
:1011A000042107F071F810BDFC0E002070B5054653
:1011B0002C460C3408220C49204600F0BDFC0B489C
:1011C00000784006400F072803D1607840084000AF
:1011D00060702B7A08220E21204603F031FDD821C1
:1011E000002003F0A0FD70BDD69E0008470300203C
:1011F00010B5FFF723FD61210171D121817200211A
:10120000C1720421017307F03FF810BD70B5057A73
:10121000FFF714FD044661202071D720A072002042
:10122000E07225738C204543064805222918204684
:1012300018310D3000F0C0FC0421204607F024F8DE
:1012400070BD0000FC0E00207047704700BF704763
:1012500000BF704770B572B61849497A62B6890600
:10126000890F0BD00C24FFF7E9FC61210171D42117
:101270008172C472042107F007F870BD0024104D7C
:1012800006460836E000021BA85CFC2806D0501970
:101290000722314600F070FC002807D0641CE4B23D
:1012A000042CEFD3042C06D00024DCE7FC20E10062
:1012B000091B6854F6E71224D5E70000500300200C
:1012C000A80F002010B50146154CE07A000702D5A2
:1012D0001448606102E01348603060610A7A606916
:1012E000931DC377093100F067FCFFF7A7FC61216C
:1012F0000171CA2181720021C172042106F0C4FF6C
:1013000072B6E07A000704D5A07AF7210840A072EF
:1013100003E0A07A08210843A07262B610BD000065
:10132000500300203C0E002010B5254CA27AD207B5
:1013300001D00C2438E001460F220831214800F08A
:101340003BFC20490839087B012804D00A89930016
:10135000D2188A6101E033228A611B4A105C01289D
:1013600003D18A7B002A00D081204A7B002A01D049
:10137000402210430873487D134980009C31411876
:101380000F480422443000F0D7FB72B6E07A8006A2
:1013900004D5A07ADF210840A07203E0A07A2021C2
:1013A0000843A07262B60024FFF748FC6121017176
:1013B000C8218172C472042106F066FF10BD0000CE
:1013C00050030020840E0020C29E0008F8B5007A69
:1013D0004949C507C87A494A0023002D60D0002535
:1013E00072B601280CD062B64448007B07073F0F55
:1013F00072B603F007FC064662B6012E02D006E084
:1014000062B621E0002F01D0012F00D10D25002D63
:101410001AD139484430017838480170C3613649DF
:10142000B000283100900858002802D1FFF706FCD0
:101430000446002F21D0012F0AD0B02020710021B6
:10144000204606F021FF002572B6002D21D025E0B0
:101450002A48807B002800D0012565733C20A072BB
:101460002649204606220F310E3000F0A5FB20460B
:1014700006222349143000F05FFB6A202071E672D7
:10148000012020731C49009828310C501B484670DD
:10149000D9E719480122817A1143817262B620E0AE
:1014A00072B68C7A640864008C7262B6C00717D179
:1014B00050788C2102464A43104980318A5C022AC6
:1014C0000ED000280CD1012008700B492831086883
:1014D000002805D0B02202710B60002106F0D4FE76
:1014E0000025FFF7ABFB61210171CC218172C57230
:1014F000042106F0C9FEF8BD500300207C0E002038
:1015000030A0000870B50446FFF798FB257A6121EA
:101510000171EE2181720021C1720573042106F070
:10152000B3FEA089FB2801D9FB20A081E1891148E5
:10153000814200D9E081218AFB2906D98C210E4AFB
:1015400069438918803189792182618A814200D971
:1015500060820A49E800401821460C3108220C46F6
:1015600000F02AFB2B4608221421204603F068FBDA
:1015700070BD000048080000FC0E0020E8030020B9
:1015800070B50446FFF75AFB61210171EC218172AD
:101590000021C172617A11258A08002A02D1A27A3B
:1015A000930801D0C57218E0237A0E4C002B04D0AA
:1015B000012B0ED0022B10D106E0914201D0C57252
:1015C0000BE06170A17008E0002906D06170A17085
:1015D00003E0002A01D06270A270042106F054FEDC
:1015E00070BD00006803002010B50949027A0A7036
:1015F000427A4A70807A8870FFF720FB612101717E
:10160000C42181720021C172042106F03DFE10BD8B
:10161000290400207047000070B50246167A8C201D
:10162000284970434418002E2BD10025907A810858
:1016300002D1D17A8B0801D011250EE0527A002A0E
:1016400020D0012A2ED0022A25D020468030014603
:101650004278203882768978C176ED21284603F0D9
:1016600062FB002D0DD1204660300246817E203085
:10167000437899421DD1002191764278002003F0F1
:1016800042FB70BD884201D01125E6E7214660315A
:101690008876C876E1E70028DFD021466031887679
:1016A000C876DAE70029D8D0204660308176C17646
:1016B000D3E720463346022216217A3003F0C0FADF
:1016C00070BD0000FC0E002010B5144CA27A520729
:1016D00001D00C2416E072B6062201460F480831EC
:1016E000533000F069FA72B6E07A800604D5A07A29
:1016F000DF210840A07203E0A07A20210843A072F5
:1017000062B60024FFF79AFA61210171C721817244
:10171000C472042106F0B8FD10BD00005003002083
:1017200010B50146154CE07AC00602D51448606138
:1017300002E01348603060610A7A60692030C27745
:10174000093100F039FAFFF779FA61210171CB21F3
:1017500081720021C172042106F096FD72B6E07A12
:10176000C00604D5A07AEF210840A07203E0A07A59
:1017700010210843A07262B610BD00005003002083
:101780003C0E002010B5007A1049C207887A0CD0B0
:1017900072B6820707D40E4A01231370938813810F
:1017A00002221043887262B604E072B6FD22104035
:1017B000887262B6FFF742FA61210171CE2181720F
:1017C0000021C172042106F05FFD10BD500300200E
:1017D000EC0E0020F8B5044672B6204FB87A8007A8
:1017E00002D562B60C262EE062B600261C4D2146BC
:1017F00004220A31A81C00F0DFF9207A6870A07B6F
:10180000A871E07BE8716888164A904200D96A8026
:1018100068888100401881B26980A888904200D908
:10182000AA80A88882008018A880081A6880F87AA0
:10183000400604D5B87ABF210840B87203E0B87AF0
:1018400040210843B872FFF7F9F961210171CD21F8
:101850008172C672042106F017FDF8BD5003002006
:10186000EC0E00203333000070B50546FFF7E6F9B3
:10187000044653202071294620461B220831083097
:1018800000F09AF9204606F00FFD70BD70477047D2
:1018900010B5FFF7D3F904462046062207490C305D
:1018A00000F08AF961202071C220A0720020E0724D
:1018B0000421204606F0E8FC10BD0000490300208A
:1018C0007047000010B5FFF7B9F9044620462522FD
:1018D00010490C3000F030F961202071BF20A07257
:1018E0000020E0720421204606F0CEFCFFF7A6F9A6
:1018F0000446084920461B222531093000F01CF916
:10190000722020711B2020720421204606F0BCFCAE
:1019100010BD00008CA3000810B5FFF78FF9044636
:101920002046082207490C3000F006F9612020719A
:10193000C020A0720020E0720421204606F0A4FC22
:1019400010BD0000CCA3000810B5FFF777F90446DE
:101950002046082207490C3000F0EEF86120207183
:10196000BE20A0720020E0720421204606F08CFC0C
:1019700010BD0000CE9E000870B505462C7A002CE4
:101980000FD1B221002003F0CEF90C350522054914
:10199000284600F0D1F8234605220C21284603F002
:1019A0004FF970BDBD9E000870477047704700003A
:1019B00010B5047AFFF742F961210171C3218172E8
:1019C0000021C1720473012141738C214C430449ED
:1019D0006118203149788173042106F055FC10BD4F
:1019E000FC0E002010B5FFF729F961210171B42127
:1019F00081720021C172042106F046FC10BD7047BF
:101A000010B50D49027A0A70427A4A70C27A8A7019
:101A1000427BCA70C07B08710820FFF76BF9002871
:101A200008D061210171B32181720021C1720421AA
:101A300006F02AFC10BD00003004002010B5074954
:101A4000807A0870FFF7FAF861210171B92181727B
:101A50000021C172042106F017FC10BD28040020EB
:101A600070477047417A044A89005258037A014608
:101A70000B31184610470000A89D000830B4427A88
:101A8000044B92009B58047A0246817A204630BC6F
:101A90000B321847B09C000810B505F087FE0446CD
:101AA00020799038C0B20449800009582046884700
:101AB0002046FFF711F810BDA09E000870B5002069
:101AC000124C114B2278521E07E0411C34254D4325
:101AD000ED18342670431D50C8B29042F5DB002249
:101AE000342148431A500A484360217801704270FB
:101AF0000020084BC1005A50C9184A60401CC0B2AF
:101B00000528F7D370BD0000D004002074990008A8
:101B100038030020F40D002030B40023002A07D938
:101B2000CC5CC55CAC4203D15B1CDBB29342F7D307
:101B3000D01A30BCC0B27047002A05D0521ED2B2B3
:101B40008B5C8354002AF9D1704710B4002A08D066
:101B50000023521ED2B2CC5C84545B1CDBB2002A40
:101B6000F7D110BC7047002A05D0521ED2B28B5C50
:101B70008354002AF9D1704730B40023002A07D9D2
:101B8000CC5CC55CAC4203D15B1CDBB29342F7D3A7
:101B9000D01A30BCC0B2704730B40023002A07D935
:101BA000CC5CC55CAC4203D15B1CDBB29342F7D387
:101BB000D01A30BCC0B27047002A05D0521ED2B233
:101BC0008B5C8354002AF9D1704710B4002A08D0E6
:101BD0000023521ED2B2CC5C84545B1CDBB2002AC0
:101BE000F7D110BC704710B4002A08D00023521E51
:101BF000D2B2CC5C84545B1CDBB2002AF7D110BC9F
:101C0000704710B40023002A05D9CC5CC4545B1C77
:101C1000DBB29342F9D310BC7047002A05D0521EA4
:101C2000D2B28B5C8354002AF9D1704710B505F00D
:101C3000BDFD044620798038C0B2044980000958AF
:101C4000204688472046FEF747FF10BDD4A3000872
:101C5000F0B58FB00646F468307A8C2148436D4960
:101C600045182846643007F025FD204614302946E3
:101C70007431052207460D90FFF7CFFF2946204615
:101C80005C3108221930FFF7C8FFA57A492008A95E
:101C9000087000208873CD73394608AF0D22781C78
:101CA000FFF7BBFF00205C493A5C095C514004AA85
:101CB0001154401CC0B21028F5D304A807F0EEFC64
:101CC00007F0CCFC1022544908A8FFF74CFF012074
:101CD00008A94870707A887004A807F0F2FC002008
:101CE00004AE315C3A5C51403154401CC0B2102803
:101CF000F7D304A807F0D2FC07F0B0FC01206A4635
:101D0000107000219173D0730D2268440D99FFF774
:101D100084FF1022404908A8FFF725FF21460B3118
:101D20002A4608A80C91FFF778FF04A807F0C9FC21
:101D30000020315C3A5C51403154401CC0B2102844
:101D4000F7D304A807F0AAFC07F088FC04A807F062
:101D5000B8FC684607F0A2FC07F080FC08A807F072
:101D6000B0FC00202118CA7A3B5C5A4020318A70AE
:101D7000401CC0B20728F5D3606908AFFF220346B4
:101D8000F97913434B40214627318B70030A3F7A80
:101D900013437B40CB7008AF030C7F7A13437B4027
:101DA0000B71000E104308AFBA7A50404871207E84
:101DB000F97A48400C9920318870002021183B188E
:101DC0004A7E1B7B5A4020318A73401CC0B20428D3
:101DD000F4D3002069468873C873684607F05EFC38
:101DE00007F03CFC08A807F06CFC0020315C3A5C72
:101DF00051403154401CC0B20428F7D3601922303E
:101E0000042204A9FFF709FF281D21210855657246
:101E10000FB0F0BDFC0E002030A0000810B5014648
:101E20001831083007F020FCFEF71EFF0446612041
:101E30002071D920A0720020E07220460C3007F0FB
:101E400051FC0421204606F03DFA10BDF8B5057A94
:101E50008C21154A69438C18214664310F4609309C
:101E600007F002FCFEF700FF61210171DC218172A5
:101E70000026C6720573042106F024FA00222B46C0
:101E80000521104602F0F8FE384607F01AFC074814
:101E9000022282712146603108464A766667E6670B
:101EA000067680342670F8BDFC0E0020500300201A
:101EB00010B51049104A097808300907090F891828
:101EC00010220446FFF74FFE21460A4807F0CCFBDC
:101ED000FEF7CAFE044661202071DA20A0720020BD
:101EE000E07220460C3007F0ECFB0421204606F09F
:101EF000E9F910BD840300207E9F0008F8B5044670
:101F0000204613300090FEF7AFFE06463046102202
:101F100022300099FFF781FE009803F0DDF9257A61
:101F20003046174EAF00F051FEF79EFE6221017160
:101F300000214172DB21C172042106F0C3F900982F
:101F400007F0BFFBF05921460931083016220C4634
:101F5000FFF763FE8C200B49684340186030407ED9
:101F6000800706D000222B460A21104602F084FE8C
:101F7000F8BD2B4616220321204602F07DFEF8BD57
:101F800078030020FC0E002010B5FEF757FE6121FB
:101F90000171E52181721E21C172042106F074F9DC
:101FA00010BD10B5FEF74AFE61210171E421817276
:101FB0000121C172042106F067F910BDF8B507468A
:101FC0003D460C353E7A8C20F44970434418F97A2A
:101FD000F34A042052780B0006F0F4FA190E33325B
:101FE0003F3F4F566EAEC4D732DEFEAEFDFDFCFD68
:101FF000FDFBFAF9F832FD002078562807D1802041
:1020000020708120025D31462A2002F07CFE2146AC
:10201000204606222A311230FFF7AEFD00280FD0ED
:10202000FEF70CFE04466C202071E6722046062264
:10203000E91C0C30FFF7C0FD0421204606F024F90E
:10204000F8BD20785628FBD181202070803462783A
:1020500031462A2002F057FEF8BDFEF7EFFD044698
:1020600055202071394620461A2208310830FFF7E2
:10207000A3FD204606F018F9F8BD002233460621DC
:10208000104602F0DDFDF8BD002233460621104661
:1020900002F0D6FD387B022805D00122314600200F
:1020A00002F013FEF8BDFEF7C9FD672101718672CB
:1020B000042106F0E9F8F8BD21784E2907D054290B
:1020C0001DD056290FD02878162820D02AE020705D
:1020D000FEF7B4FD6D2101711A218172C6720421CF
:1020E00006F0D2F8F8BD20708120025D31461A203A
:1020F00002F009FE00206034A076E076F8BD207082
:102100008034E2786179304602F0EEFDF8BD81203E
:10211000025D31461A2002F0F6FD002120466030B3
:102120008176C17628781428F0D18034E2786179FC
:10213000304602F0D9FDF8BD08229A492846FFF73B
:10214000FBFC994800784006400F072803D16878C7
:10215000400840006870334608220921284602F0F2
:102160006FFDF8BDFEF76AFD04466D20207100206A
:10217000A072E6722046082229460C30FFF71CFDAB
:102180000421204606F080F8F8BD002233460B21DA
:10219000104602F055FDF8BD207843281DD08C284C
:1021A0001BD0824840780007F5D5FEF747FD04466E
:1021B00065202071A6722046052229460B30FFF7C4
:1021C000FBFC0421204606F05FF8F8BD4DE034E04A
:1021D00091E087E00EE0D9E00DE07249052219395F
:1021E0002846FFF7A9FC334605220C21284602F0B9
:1021F00027FDEAE76D1C217843290FD044290DD033
:10220000562912D028462038C07F1628DDD18034C8
:1022100062782878314602F076FDD6E7207028787B
:102220000022314602F051FDCFE720708034627801
:102230002878314602F067FDC7E7287869780840BA
:102240008007800F002803D08121095D884310405A
:10225000002801D1803460782870687033460222EB
:102260001721284602F0ECFCAFE72878697808408F
:102270008707BF0F002F18D07A20005D002800D0FC
:1022800007403A408120005D82431746002F0CD062
:10229000B84209D0B80701D5022706E0F80701D0F7
:1022A000012702E0002700E00027002F0BD02F704D
:1022B0006F70E08B08302086214602223031A81C46
:1022C000FFF77AFC04E0042239492846FFF774FC42
:1022D000334604221821284602F0B2FC6034A77667
:1022E000E77672E72E48F10080300818334608225E
:1022F000152102F0A5FC0021294AF0008032871840
:10230000284A480008322B5A125A934200D92A52BE
:102310003A5A2B5A9A4200D22A52491CC9B204296D
:10232000EED3688880080E3880B22988814202D9AD
:102330008421085501E0842211554008C01F80B255
:102340002988814202D98321085501E08320015563
:10235000E88880080E3880B2A988814202D9862197
:10236000085501E0862211554008C01F80B2A98897
:10237000814202D98521085501E08520015580342C
:10238000E2786179304602F0AFFC1EE7384633460A
:10239000012207210B3002F053FC16E7FC0E00204F
:1023A00068030020D69E0008470300203004002068
:1023B00030A0000870B5174AD079292813D02A28F0
:1023C00011D0322802D0352823D10CE0106A4068A1
:1023D000222808D9506A418AD1818030807801282A
:1023E00001D1491ED181012090700B4D0024EC7069
:1023F000FF2028706C70094E3068002804D0706887
:10240000FEF7A4FB746034600222A91CFF2005F0D3
:10241000FFFB70BD50030020E80F0020C403002024
:10242000014800687047000004040020F8B54148E6
:10243000817800296DD0C07928380E2869D2010032
:102440007944097949188F440665650664646464B3
:10245000646465060665384EF1787078814258D01C
:1024600002462032914201D9202401E0081AC4B268
:10247000002C45D0314F327839684B7A9D1AEDB235
:10248000887AC01A4319D8B2A04226D28918DBB282
:102490000B311A46301DFFF7C0FB601BC4B23A680F
:1024A00079688A4216D0937A527A0B31981A401979
:1024B000C2B29019001D2246FFF7AFFB3868817A3F
:1024C000407A081A201A307078683860006800284E
:1024D00000D078606019C4B212E089180B3122462E
:1024E000301DFFF79AFB307800193070AC4207D1ED
:1024F00000203070786838600068002800D078606C
:10250000002C06D02146301D05F09EF87078001989
:102510007070F8BD0A4C07E06A2005F03DFA1028FB
:10252000F7D3102001F026F8E0786178401A1028DF
:10253000F2DCF8BD50030020C40F0020CC030020C3
:10254000E80F0020F0B589B0FE4DFF4F68790126F5
:1025500004286BD02846C0694578029541680191EE
:10256000FA49019A09688A4200D0FDE369460A796E
:10257000F4490B7AD2180A72007802287DD20D46EF
:1025800000287BD0F24E307804F0F0FFEC7AA97A84
:1025900020464C406040E872C0070BD0A00609D529
:1025A0002022EC49EC48FFF738FB0422EB49EC48C9
:1025B000FFF733FBE87A80070BD5600609D51022B8
:1025C000E849E948FFF729FBE4490422081FFFF71F
:1025D00024FBE87A4007400E6872E8893178334678
:1025E000401AE881286A4468611A4160E96900205C
:1025F000087018784860DD4A7D2141431469CB1783
:10260000556909196B41536111613979C906C90EC0
:102610003971D7490B6818180860C878EF2802D9B3
:102620000007000FC87004F02BFD15E2E87AA97AC4
:102630000246484041074BD04240EA72287968710F
:1026400002F072FDE8690670C14C22784260286A87
:10265000FF2202708178297104228270E87A410792
:10266000490E6972C1071AD02022BA49BA48FFF749
:10267000D4FABA490422081F01E0A9E149E0FFF7B2
:10268000CCFAE8694670286A4670B349097B0A07A4
:10269000B849120F895C22788918416013E08007DD
:1026A00011D5B0491022881AFFF7B7FAAB490422B6
:1026B000081FFFF7B2FAE86902214170286A4170E9
:1026C000A94989884160207804F050FF09B0F0BD25
:1026D00004F0D6FCA548A84C0269416912190023F0
:1026E0005941026141613879C006C00E3871A04974
:1026F00019220868920180180860C878EF2802D96A
:102700000007000FC870FDF755FF04F015FE09B073
:10271000F0BD022004F02AFF06F0AEFD9748017AD2
:10272000C02001436B2005F08FF904F0F3FFE86946
:102730004478002C14D0924804F090FC0422914973
:102740007A2005F09BFA00219B2005F07DF92520D9
:1027500004F014FE012C54D0022C71D000BF7BE198
:1027600089486862FF2004F009FEE87900282FD02C
:102770000120FEF7ABF9696A042208317A2005F0DE
:102780007DFA686A7921095CA9712021095C3230DF
:10279000085C06F053FF686A2021095C3230095C4E
:1027A0007A48405C04F0C0FD686A02F0D5FA686AB5
:1027B0000C3004F053FC686A8030407802281CD04A
:1027C000002004F037FE04F00BFF02F095FC43E11B
:1027D000686AC01C04F0D8FD02F044FC3220E871A5
:1027E000E889801EE881286A4168891E4160E8699D
:1027F0000321017002214160BDE7012004F01AFEAF
:10280000E1E7554F8C21787802464A435E495118DA
:102810006962697AC9060CD4002802D102F000FA74
:102820007E7004F06BFF02F0C5FC02F0B1FC09B051
:10283000F0BDE879002804D00220FEF747F90BE14B
:102840004EE0B81C04F0A0FD02F01AFD3878504CA0
:10285000205C06F0F3FE3878215C4C48405C04F0C4
:1028600063FD39783E48405C38704A49387B88704F
:102870000607360F012E05D0E87A000705D5464C2D
:10288000E07F04E0454C0C2001E0454CE07FC8703F
:10289000881C04F009FD787B002818D0414804F01A
:1028A000B7FE002004F0C6FD022E14D004F098FEFE
:1028B0000B20E871204604F09FFE286A4168891EBB
:1028C0004160E8690321017002214160C4E036489B
:1028D00004F09EFEE5E704F077FE0A20E871E9E7E0
:1028E000687A800607D404F009FF02F063FC02F066
:1028F0004FFC09B0F0BDE879002803D00320FEF7B3
:10290000E5F8A9E0294804F03FFD02F0ABFB164CC6
:102910001F4E2078305C06F091FE2078315C1B4819
:10292000405C04F001FD002004F084FD6078002884
:1029300047D01420E87117480C21C17004F050FEF4
:10294000286A35E050030020E0030020080400203E
:10295000FF0300207C0E00201C0E002094030020AA
:1029600090030020EC0E0020DC0E0020D00300209D
:1029700004040020C79E0008400D03003C11002005
:102980008C03002088030020FC0E00204911002049
:10299000B09E0008C40F00209C0E00202B0E0020CB
:1029A0003C0E00209D03002049030020E60E00207D
:1029B0004168891E4160E86902214160032101707C
:1029C0004AE01520E87104F0FFFD02F0C3FB43E08C
:1029D000FE49FF2875D00D46032811D1012004F0CF
:1029E000C5FDFB480078662816D0FA48407A810673
:1029F000890E772005F028F8E86946600221017009
:102A0000E8694078002812D001287DD002287CD0C7
:102A10000920FEF75BF81FE0EE493879497A084350
:102A200038710522EC49732005F028F9E4E7E879CC
:102A3000323806286AD201007944097949188F444E
:102A40000C02020C16F9E889401EE881286A4168E8
:102A5000491E416000F06CFD2AE2296A486803289B
:102A600030D804F0B1FD06F007FC3620E871286A82
:102A70008178042907D0CA00D849436851184A68A8
:102A8000D218521E4A600121D04D4160E869877812
:102A900002F060FBE889019002F00EFB054600267B
:102AA000CA48406A014680310A89C38A9A4274D270
:102AB0004B897D2109028B426FD20178802909D090
:102AC0001BE053E2EA89521EEA81401E486000F092
:102AD0002FFDEDE1C18B028E891991420DD10621A6
:102AE0000170818C4184018D019A89180191014600
:102AF00006222A311230FFF790F8042F4ED2B74841
:102B0000F9000818B14902E0ECE0ECE1E6E0086207
:102B1000436801998B4237D30078022824D2B04809
:102B2000019A0078844628180146C01C90421BD2A6
:102B3000019A541AE41EA549C881680060442730F0
:102B400085B2486A0178022902D0062908D103E03B
:102B5000C07B401985B203E02030C079401985B2AE
:102B600001984019834255D8984D0199686A408A66
:102B70004018019002F0C0FA686A02F0EDF802F025
:102B80009BFA0546761CF6B29049086A8778426837
:102B9000019B9A1A0192C86182E73BE09048019933
:102BA00000782818C01C884216D3884C0199606AA6
:102BB000408A4018019002F09FFA606A02F0CCF857
:102BC00002F07AFA0546761CF6B28549097868184B
:102BD0000199C01C8842E9D28148019A017868189D
:102BE000141AE41E794AC01CD081680040182730AE
:102BF00085B2506A0178022902D0062908D103E083
:102C0000C07B401985B203E02030C079401985B2FD
:102C1000761CF6B26D48416A7D200A46803253899F
:102C20000002834207D369483722C2712220203133
:102C300088713DE149E01289CB8A64489A422FD2DB
:102C4000CA8B9219CA83C26901799170634BC9001A
:102C5000C918C16101220A704C608978C900C9187D
:102C600001628A7802718F70426AC389548AE618B9
:102C7000AE4202D85B1EE21895B204464D60FF20BA
:102C80000870E16902984870216A029848700298B9
:102C900001F010FF606AE189408A4018E08109E094
:102CA0003722C2710878022807D0422809D00820AC
:102CB0002031887102F038FAF6E33E202031887125
:102CC000F8E7222020318871F4E7286A406804F090
:102CD0004DFC02F03FFA02F027FAE5E30620FDF78B
:102CE000F5FEE1E3E8790C287CD00E280AD00F2805
:102CF00079D0296A4868012876D0401E486000F0E3
:102D000017FCD1E3286A2F46406804F02FFCF869CD
:102D1000857802F01FFA786A028AD21D0192002299
:102D2000028202F0C9F900232849496A0A46803222
:102D3000944612890892CF8ABA427DD2042D57D286
:102D4000264AEF00BA18214F3A620792526806925B
:102D5000019FBA4232D3079A1278022A1ED2204A21
:102D600012780592821800E0B1E30492D21C019F10
:102D70000392BA4212D2019C049AA41AE41E134F81
:102D8000039AFA81CA7B40001018059A27328018EE
:102D900080B2019F069AD21B824257D8488A019A74
:102DA000801801904A8C0898801862461081084665
:102DB00001F0D2FF02F080F95B1CDBB20349096A23
:102DC0008D784A68019FBA1A01920EE050030020E4
:102DD000470300203C110020E0030020EC100020FD
:102DE000FF0300206CE064E07AE0FE4AD1619BE7DB
:102DF000FD4A019C12788218D21CA24212D3F948D3
:102E0000019A406A408A801801908820405A4A8C72
:102E1000801862461081084601F09EFF02F04CF9CE
:102E20005B1CDBB2F049019C0A788118641AE41E2D
:102E3000EC4FC91CF98100E008E0796A4000C97BC9
:102E400027320818801880B25B1CDBB2E5494A6A59
:102E50008821895AD78AB94224D2D78BE149FB18F5
:102E6000D383CA690B799370DA00E04BD218CA6138
:102E7000167054609278D200D2180A6293780B715F
:102E800095705060FF201070D948CB6942785A7015
:102E90000B6A42785A704670486ACA89408A80181C
:102EA000C88100E0167002F03FF9CE480F21C171D1
:102EB000FAE2286A406804F059FB02F04BF9F3E2A9
:102EC000296A4868012804D0401E486000F030FBA1
:102ED000EAE204F079FB06F0CFF902F03BF9E3E215
:102EE00002F038F9E0E2E879143805283AD2010016
:102EF0007944097949188F4402EF16161600296A99
:102F00004868062804D0401E486000F011FBCBE260
:102F100004F02CFB04F058FB06F0AEF902F01AF9AD
:102F20001820E871C0E2296A4868062814D0C01F3A
:102F300001900720486004F019FB02F00BF9286AA1
:102F4000002803D04168019A89184160A948019A74
:102F5000018989180181A7E200200190062004F070
:102F600005FBEAE70720FDF7B1FD9DE29D48002D36
:102F7000C2790ED0012D31D0022D6FD00C20FDF77B
:102F8000A5FD984C0020E07104F0AEFB00287DD038
:102F9000A3E19448332A0CD006DC282A09D02B2A36
:102FA00007D02D2A15D108E0342A02D0372A10D1B3
:102FB00003E00A20FDF78AFD0DE0406A2946203033
:102FC000807901F075FE284601F096FF284601F051
:102FD00027FE02F0BFF802F0DBF8D2E7814C0D2AA1
:102FE00002D00E2A05D101E000BF02E00B20FDF760
:102FF0006DFD607AC0066ED57D48007B01077E4876
:10300000090F415C78480078801C0818C1B27548E7
:10301000C06985782C462546042C2AD2744800784D
:103020008446734883697148E20010186D4A106243
:103030000278022A13D242688A4210D3521A674693
:10304000002F03D06748006A426012E0684FFF69B2
:10305000BB4204D26348006A42600AE095E0614ADC
:103060008478D061624F4068FA691018F861042CC6
:10307000D9D35C4AD0691779877006701079C3007C
:103080005A48181810628378137100E023E18470A5
:10309000891EC9B241604670FF230370042C02D020
:1030A0000120019021E0042D02D0012001901CE0BC
:1030B0004F4FB86933280AD03B78002B0DD0FF233F
:1030C0004133984211D35023581A01900DE0112337
:1030D000581A019009E04AE089E1FF69B84202D933
:1030E000C01B019001E0012001903E48019BC06996
:1030F00043603F48019FC26979185118C161017846
:10310000002907D18169332901D00021C1613B49E0
:10311000097801700522C169D202914219D334485D
:10312000374F407880003858042105F0CBF83049FB
:1031300000204978890078502A48EF22417A1140CE
:103140004172C17A49084900C172817A490849002F
:103150008172042D05D0A54203D02248457101F0AB
:10316000E3FF2048C069406804F000FA09E7204CFA
:103170006078002802D101F053FD667004F0BEFAB9
:1031800001F0E8FF02F004F8FBE6164C152A01D026
:10319000172A01D106F070F8607A800675D51548B7
:1031A0000089122804D31349801C0190488802E04A
:1031B0001420019000200B49C9698B7819460B46F1
:1031C00004293DD2074D6F79084ACC00A2182A6223
:1031D0001478022C28D2074C6488844224D854687E
:1031E000142C0FE050030020FF030020EC100020FF
:1031F0001C0E0020DC0E0020C79E0008900300205B
:103200007803002010D32C6A019D6468AC4207D07B
:10321000019D641B641C5460019A921E01920FE090
:10322000A41E019456600BE09178019C142C01D1EE
:1032300052681018EC69A1702A6A97700429C3D3E8
:10324000042903D1042B21D012220192AC4A5288C6
:10325000824200D9101AAB4FFA693C79947016700B
:10326000401C50603879C200A74810183862827834
:103270003A718170019A4260A14C019D2289AA4253
:1032800008D9019D521B22810DE01CE09C4A9288C6
:103290000192DBE7A288228125789C4AAA5C2270F1
:1032A000002A00D1267002224270FF220270042BF5
:1032B00004D08B4202D07B7101F036FFF869406880
:1032C00004F054F95DE68E490020087001F042FFD9
:1032D00001F05EFF55E605F0CFFFE06901780229B5
:1032E00024D24078002821D1894D7920405DA071F9
:1032F000800716D0294618225C31832004F0BEFCDA
:103300002F46803738788021084338700522391FCE
:103310007E2004F0B3FC04F0EBFC38784006400E4D
:103320003870A0798007800F03F08AFEE06940685A
:10333000022801D2FFF7DDFAE07AA27A0146504076
:10334000420754D04140E1724907490E6172C107FA
:103350004ED020226F497048FEF75FFC04226F496F
:103360006F48FEF75AFC607A1021084360726A4881
:10337000007B01076B48090F415C6B480078801C9B
:1033800008180190206A8178042915D25E4DC80082
:10339000401920620278022A0AD24268019B9A42AE
:1033A00006D3226A019B5268D21A521C426003E083
:1033B0008178E0610429EAD3E26920799070524A69
:1033C000C0008018E061067046608078C0008018F8
:1033D00020628278227181700199891E4160FF21EB
:1033E0000170E0694670206A467001F09DFE5BE066
:1033F000810759D5400609D54C491022881AFEF795
:103400000CFC46490422081FFEF707FC607A2021C5
:10341000084360723A4B9888801C0190206A81783A
:1034200004291ED2384DC800401920620278022AB1
:1034300013D24268142A10D3226A019D5268AA420C
:1034400007D0019D521B521C42600198801E0190C2
:1034500007E0921E0192466003E0E0618178042952
:10346000E1D3042901D112200190E2692079907002
:10347000254AC0008018E061067046608078C00070
:1034800080182062827822718170019941601989C7
:10349000019A891A1981FF210170E169022048709F
:1034A000216A487001F040FE164C6079042800D172
:1034B00040E7E0694068032801D3FDF77BF8E06945
:1034C00040682828F4D903F037FF09B0F0BD019A0D
:1034D0008A4212D9019A511A4160002D07D0012D5C
:1034E00007D0022D07D000BF00BF09B0F0BD00BF5C
:1034F000FAE700BFF8E700BFF6E700BF09B0F0BD8C
:10350000DC0E002050030020EC1000207A9F000801
:10351000FC0E00207C0E00201C0E002094030020D6
:1035200090030020C79E0008FF030020EC0E00203F
:1035300010B40D487D2402694169121900235941D4
:103540000261416109480179C906C90E0171084942
:103550000868401C0860C878EF2802D90007000FEF
:10356000C87010BC70470000D0030020E0030020AA
:1035700004040020F0B583B00446002C73D09E4EA6
:103580009E480578304603689C48071D4278C078FD
:10359000D119FF2D08D0904268D9002B64D0224663
:1035A000FF2004F035FB62E0002855D0002A08D047
:1035B00090424FD9002B4BD02246FF2004F028FB2D
:1035C00055E00190FDF766FB05467560280019D0AF
:1035D0008A4822464078C119FF2004F019FB78235D
:1035E0002922002135602B71697229720198002807
:1035F00013D0019829280CD9AA7201982938C0B291
:1036000001900AE07D48C1784170002030600024BC
:103610002DE00198A872356029602D68002DE1D158
:10362000764DA8788007800F012808D0744B706809
:10363000186072681268002A07D05A6006E0704865
:10364000316801607168416011E0586029700EE0D6
:1036500000240CE000240AE0002A08D10020706059
:103660003060002403E07BE0002400E00024002C14
:1036700076D004F03DFB2546292C03D92824283D8B
:10368000EDB201E02C4600255C480078FF282DD0E3
:103690005B4B1A68917A507A81427DD0091ACEB27A
:1036A0000119292979D955490B3049781018C919B8
:1036B0003246FEF7B2FA52480168487A80194872D9
:1036C0004F484068814269D0A11BCAB202914B4960
:1036D000361D4B780B3059188919494EFEF79DFA63
:1036E00070680299427A511841726FE04548464924
:1036F000C0694078C00042185268002A51D008586A
:10370000827A3E4841785018C0B20219292A08D25C
:103710003B4A0B301268C91910182246FEF77DFA91
:1037200036E029281DD22922354B161A1B680B308A
:10373000F2B2C9191818FEF770FAA01BC0B20190B6
:103740002E48361D4178019A081881192C48406886
:103750000B30FEF762FA2A490198496848720DE079
:1037600047E0201A2930C6B22548C91940683246B8
:103770000B30FEF752FA22484068467220494868EA
:10378000002802D00860006848601C4800210170D1
:103790001A484178091902E028E00AE016E0417071
:1037A00024E0154E7068FDF7D1F90020706030609C
:1037B0001CE012490B3049781018C919104E2246E6
:1037C000FEF72BFA3068417A091941720C490868F2
:1037D000827A407A824205D14868002802D0086087
:1037E000006848600548417809194170002D00D0F3
:1037F00042E703B0F0BD0000C4030020E80F002042
:10380000D403002050030020BC03002010B4074B59
:10381000820098580021002805D0047A002C02D09C
:1038200001720068F7E7985810BC704760030020E9
:10383000F8B50026184D84002859002700281BD011
:10384000017A002915D0427A8A4205D9417A027A52
:10385000891A417207720FE0477207720168295195
:10386000002908D0FDF74AF92859017A0029E5D145
:1038700002E0002000E00126002E08D00179E629B0
:1038800003D0EF2904D0F02901D142214172F8BDC3
:1038900003214172F8BD000060030020F0B583B041
:1038A000F84EF069417830460C25C079002907D0E0
:1038B000B02401297DD002297CD000BF03B0F0BD27
:1038C0000021B1700124F04F322809D0332872D082
:1038D000342871D035280BD005F0CEFC03B0F0BDF4
:1038E000B87869460870F878487001F0F3FB002456
:1038F0001521306A00F052FC002805D005F0BCFC10
:103900003620F07103B0F0BD002C04D0B8786946C1
:103910000870F8784870706AC47B2C4001780229DE
:1039200009D1042101700022014680310A814A81B7
:103930000024C18DC18203F098FB307000281CD098
:103940000322D249A62004F063F9684600780007F4
:10395000850F2046CE4F2843385C410638D568464F
:103960004078002831D06A2004F016F8FFF702FEF4
:10397000C8484068002820D027E00025C648847049
:10398000FB21C170801C03F08FFCF0694078FFF7C9
:103990003DFF0190706AC4733420F071BD4F3868E8
:1039A000002879D07868FDF7D1F800207860386079
:1039B00072E0A3E1E7E24EE19AE169460878EF217F
:1039C000084069460870B548455D2C433C5D00E001
:1039D0000446706AC4733421F17169460978C906D6
:1039E00001D53321F1710178062903D10421017039
:1039F000C18DC1820025A8488470FB21C170801C44
:103A000003F052FC20062DD5F0694078FFF710FF37
:103A10000746F06940788100A1484158084638437C
:103A20001AD0002907D17D7A20200543F87A029028
:103A30003846FDF763F8B079C0070DD0002F0BD0E2
:103A4000706A416F491C4167002905D16030017ED1
:103A5000491C4906490E0176F069407801F088F961
:103A6000019004E0F0694078FFF7D0FE0190600615
:103A700012D56846407800280ED0B07980070BD563
:103A8000706AC16F491CC167002905D18030017877
:103A9000491C4906490E01700198002824D030784D
:103AA000002810D0F0697F494078C000411849686B
:103AB000002904D17C4940184068002803D0102018
:103AC00004433320F071F0692146407800F0AAFDEC
:103AD00000284FD1F0694078810071484058002893
:103AE00048D03420F07145E001202043C1066A48E7
:103AF000C90E81700027C770801C03F0D5FB706A67
:103B0000828A002A36D0018A914232D2620623D5B7
:103B100069464978002901D007822BE021060AD5A1
:103B200005F0AAFB706A018A491C01828030078176
:103B30003620F0711EE08821095A00290AD005F0CC
:103B40009BFB706A018A491C018280300781362004
:103B5000F0710FE007820DE000290BD005F08CFB1F
:103B6000706A018A491C0182803007813620F07119
:103B700000E00782A806372700283ADAE8438007E2
:103B800006D0680635D5F069407800F03FFD30E09A
:103B9000706A0178042906D1444A0299515C017087
:103BA00000218A2211520299022906D0062909D041
:103BB0000B290DD00C2918D112E01621203081716B
:103BC000F77112E0002157221154042101700CE01A
:103BD000022157221154002141676030017604E030
:103BE00001788C2901D104210170F079372800D1A6
:103BF00088E630780028FBD0600621D568464078FA
:103C000000280BD0B079800708D59B2003F0C4FEB4
:103C1000C0060BD568460078800707D0F069009988
:103C2000407800F0E7FAB02809D009E0706A3D2139
:103C300020308171F77105F01FFB03B0F0BDF77103
:103C4000716A00208031088103F030FA716A2031F6
:103C5000487003B0F0BD706A4030C07D002805D0C8
:103C600005F00AFB3620F07103B0F0BD2621306A62
:103C700000F094FA00281BD005F0FEFA3620F0710F
:103C800003B0F0BD50030020E80F00200004002026
:103C90009E9F0008C4030020C40F0020B49E0008AB
:103CA00060030020AC030020B4030020E29F000862
:103CB0003520F071B079800713D5716A80230846EA
:103CC000803002781A43027005227C317E2003F096
:103CD000D5FF04F00DF8706A803001784906490E6E
:103CE0000170B0798007800F03F0AAF903B0F0BD2E
:103CF00005F0C2FA3620F07103B0F0BD0F270A2894
:103D000007D00B2808D00C2809D00D28F4D105F0D5
:103D1000B3FAF77103B0F0BDF57103B0F0BDFE4822
:103D2000C77103F0A2F900281DD002226946FF20C6
:103D300003F06EFFF94F387B0607360FFCF794FF50
:103D40000190019D08350198047122222946FF2027
:103D500003F05EFF684600780007000F03287DD05F
:103D600005287CD103E005F087FA03B0F0BD05F02B
:103D700083FA002E02D0012E0DD0F3E0B87D032887
:103D800001D0022819D168460078019903F0ECFCB3
:103D9000002864D111E068460078400603D4387BDF
:103DA00000065CD402E0387B000658D50622DC49C8
:103DB0002846FDF7F1FE002851D1684600780199A8
:103DC00003F0B4FC00284AD1D4484478684600780F
:103DD0004106D44804D50121A2008258517303E062
:103DE0000021A20082585173CE48A700C05929462D
:103DF000143006221631FDF710FFCA480021C059C1
:103E000081722E46203670784109C648C0598176A5
:103E100070784109C048406A8030C171C1480622AB
:103E2000C05929460E30FDF7F8FEBE480421C0599E
:103E300004F048FABB490020C851B748C0780028B0
:103E400002D02839401EC870B34F2946786A15221F
:103E50000C310830FDF7E1FE252201E048E081E069
:103E6000786AB1493230FDF77EFEE97C0A20414391
:103E7000786AC1737178C906C90E41777178CA062C
:103E8000D20E20210A5402210170018A0A225143D4
:103E90000182C18AC900C185418A41848A00882380
:103EA0001A520A2251434182C18201F013F9786A01
:103EB000C17B428A0B4608339A4201D12239C17331
:103EC000204600F03DFF786A05229849C01CFDF7A6
:103ED000A4FE787AEF2108407872F87A4008400012
:103EE000F872B87A40084000B8720E20F87139E0D4
:103EF000002E01D0062E35D103F0FAFEB87D012840
:103F000001D0032806D168460078019903F02CFC03
:103F1000002827D168460078019903F007FC0028A3
:103F200020D1387B010909018148091D81707A4D32
:103F3000E97AC90604D57F4CE17F891DC17003E091
:103F40007D4CE17F891DC170801C03F0ADF9787B49
:103F5000002814D0794803F05BFB204603F04CFBAB
:103F60000D20E8710021019804F0ACF96A48C0798D
:103F70000F2800D0F9E605F07FF903B0F0BD7048D6
:103F800003F046FBE9E718216E4D142827D01528C9
:103F90007ED016287DD01728EFD1F17105F06CF98D
:103FA00003F063F80028E8D05820FCF7B1FB0028A4
:103FB000E3D102226946FF2003F02AFEFCF754FEFB
:103FC00005462C71294625220831FF2003F020FEEA
:103FD000684600780007000F04286FD1CEE0F17129
:103FE00003F043F8002804D05820FCF791FB002888
:103FF00003D005F041F903B0F0BD02226946FF206D
:1040000003F006FEFCF730FE07463C7139460831E6
:1040100025220C46FF2003F0FBFDE879002810D094
:1040200003F066FE68460078394603F09DFB0028E1
:1040300007D005F021F90021384604F043F903B018
:10404000F0BD0020694609780907090F10D0012941
:104050000BD0022909D006290AD005F00DF900215C
:10406000384604F02FF903B0F0BD05F005F9012042
:1040700000281ED169460978490600D58020A97913
:10408000002901D04021084303210843284901E0C9
:1040900019E07DE08870881C03F006F9A8790028F3
:1040A0000DD0264803F0B4FA1620F071204603F034
:1040B000A3FA3946009801F0A3F8D0E762E020485F
:1040C00003F0A6FAF0E7F17105F0D6F802F0CDFFA3
:1040D0000028C8D05820FCF71BFB0028C3D10222BF
:1040E0006946FF2003F094FDFCF7BEFD06463471DF
:1040F000314625220831FF2003F08AFDE8790028A7
:1041000027D003F0F5FD68460078314603F02CFB1C
:1041100000281ED0002117E0500300201C0E0020B4
:104120002B0E002078030020149F00081E0E002094
:10413000C40F0020BC0E00205C0E00209D03002058
:1041400049030020DC0E0020304604F0BBF803B029
:10415000F0BD684600780007000F05D0012803D0A5
:10416000022801D0062803D13146009801F048F812
:104170000021304604F0A6F803B0F0BD29460098AF
:1041800001F03EF80021284604F09CF803B0F0BD91
:1041900003F01AFA1720F07103B0F0BD10B4134CFD
:1041A000626A528A52091232521892B28378042BF0
:1041B00011D2D9000E4BC918091D0B6844681B1990
:1041C000934205D99B1A0B60426010BC00207047D7
:1041D00010BC01207047E389934202D210BC012039
:1041E0007047416010BC0020704700005003002061
:1041F000EC100020F3B581B06846477A007A80075A
:10420000800F00900198F849C0004518F748416AAE
:104210005720465C002E11D00098012806D00228B5
:1042200004D003280AD0B02003B0F0BD002F05D081
:104230003D2020318871B02003B0F0BD6A68002AAB
:104240001FD00098012802D002281AD10DE0002FBB
:1042500017D100211046837A5918C9B20068002886
:10426000F9D1D07A001D88420BD10198107269688B
:10427000712008710421686804F032F80020686039
:104280002860002F6ED0DA484468002C22D00098B5
:10429000032822D00098022822D07820207100988C
:1042A000032820D0D2490B68002B5CD02868002856
:1042B0005AD0597A2926CF4F002956D0827A991898
:1042C0008018B21A0B310B30D2B2FDF7A6FC286869
:1042D00086724DE1B02003B0F0BDE7202071DEE72B
:1042E00071202071DBE7A77201982072E17A192909
:1042F00009D8C1487F1E405C874202D1BF48415C5B
:1043000000E01A21E172B94D686A027853061DD5A2
:10431000BB4BD75C04238F4204D1037000228A2355
:104320001A521CE0072906D00D2904D0112902D009
:10433000172914D103E000228A231A520FE0562ACB
:104340000DD1037000228A231A5208E0192906D8D9
:10435000AC4B042A1CD05A5C042A00D002701929E4
:1043600070D203E03DE137E132E1D4E00A007A4463
:104370001279921897440F0F4F555D6E67BD7A7A88
:104380007174C5837ABDBD83BDBDBDBDBDBD8D008E
:104390005A5C0270E3E7002E05D03D212030817188
:1043A000B0202071ADE000290DD0214605220C314E
:1043B0001830FDF732FC686A214602221131303094
:1043C000FDF72BFC05E021460B220C312730FDF7D1
:1043D00024FC686A028EC18B8A4203D0511A8A4A31
:1043E000914205DB282120308171B020207188E0C6
:1043F000418D818402462032D3790A267343D371DA
:10440000028D0A235A4302850A2251434185C18DF8
:10441000C900C18575E0217B20308171B0202071F9
:104420006FE00221A971002E6BD101214030C175CE
:1044300067E00121A97144220270002E61D1403051
:10444000C1755EE055E02673A979C943890701D19A
:104450004030C1750320A87153E00120A87150E0DD
:104460000021C16780300170A9714AE0217B2D22B3
:1044700011404170617BC907C90F817041E001782B
:10448000432901D044293CD100214030C175A97194
:1044900037E098210170214602220E313030FDF7BD
:1044A000BCFB686A018EC28B914203D0891A564ABE
:1044B000914205DB282120308171B020207120E05D
:1044C000217B627B11408907890F00290DD0812350
:1044D0001B5C8B4204D060308276217BC17608E081
:1044E000002160308176C17603E000216030817662
:1044F000C176002E05D0696A3D2020318871B02038
:104500002071686AA9796030417600BF0021204699
:1045100003F0E6FE60E039688B420BD0827A99188E
:104520008018B21A0B310B30D2B2FDF776FB286837
:1045300086721DE07A6891420BD0827A99188018B1
:10454000B21A0B310B30D2B2FDF767FB28688672C6
:104550000EE0827A9B1880180B338A7A0B3019464A
:10456000FDF75BFB28683A68817A927A8918817234
:104570001F4E7068417A002927D03068417A00299F
:104580000BD13968884208D0FCF7B8FA3868306037
:10459000417A29290DD0002101603068417A827A60
:1045A000914200D081722968706808603068286084
:1045B00012E07968002905D0016078683060002138
:1045C0000160EAE700210160E7E7FCF7BFFA03E0DA
:1045D00048686860086828600548002141600160FB
:1045E000277903B03846F0BDBC03002050030020FB
:1045F000C4030020D403002016A00008FC9F00087C
:104600006E9F0008C89F0008FF7F000010B5044699
:10461000FCF72AFB642101718472042103F052FE2D
:1046200010BD0000F3B581B00198BD498000009035
:104630000958BC48016041600879E62810D0EF288D
:104640000CD0F02814D00025B748406A8030427959
:1046500010090001101A01280CD00DE00325F3E722
:10466000487A8A7A904201D10225EDE70125EBE7ED
:104670000125E9E7521ED2B20298AC4C2843C0068D
:10468000C00EA0700020E070012D0ED0022D0CD0C5
:10469000032D2AD1887A08728A7A2046E2708A7AB3
:1046A0000B31001DFDF7B9FA1FE09E4F17E0087AA5
:1046B00080180872E0788018E07016E0002A14D0A4
:1046C000C01A121AD2B2E378C018E070487A0872A1
:1046D0000868002809D038463960096841600B7ABB
:1046E000487A9E188642E9D2E1E7E078274610280A
:1046F00017D90007000F3B46012812D1894A51689B
:10470000087A092802D30938087207E012680926D6
:10471000147A301A201A107200200872D8780938DA
:10472000D87000207F4909680C460A7A4B7A9A4271
:1047300002D29A1A1018C0B2072801D9002002E04C
:1047400009680029F1D1002820D0072802D80821C3
:10475000081AC0B2F9783B46091A102905DD090785
:10476000090F012901D1401CC0B26E4949680A7A7B
:10477000824202D3121A0A7205E0267A821AB21A0B
:10478000227200220A72D978081AD87064490098F7
:104790000C58FE783846202E00D920264670002777
:1047A00060480460227AB24215D2A07A617A401A37
:1047B00001195E480B31C019001DFDF72EFA207A51
:1047C000311ACEB2C119CFB25849087020680028FA
:1047D00012D00446E4E7A07A617A3246401A011901
:1047E00052480B31C019001DFDF717FAA07A617A03
:1047F000401A4E49801908704A4A146020680028FF
:1048000007D04A49A67A0B78B34202D11060002043
:10481000087010680168002901D0516000E0506004
:10482000414EB079C00705D0716A052274317E20EF
:1048300003F024FA3C4EB0798007800F02F000FCB0
:10484000706A014660310A7E5206520E0A76B179CC
:10485000CA073AD08122125C022A36D1334FFA7845
:10486000072A32D8264620367278002A03D0406FB5
:10487000626990421CD000212172029801221043EB
:104880000207120F3846BA70C170801C02F00CFD8E
:10489000FCF7EAF959210171214A00995158C16088
:1048A00001990172457203F0FFFC002003B0F0BDD6
:1048B0000220084002F0C4FB72783846FA70427059
:1048C00021462231001DFDF7A8F93E2003F064F8CF
:1048D0004021174C0840207000280DD01248C18993
:1048E000491EC181006A4168491E4160FEF720FEF1
:1048F00021783E2003F0A8F80C4CA01C02F0D4FC58
:10490000E078002806D06178201D02F08DFE06496F
:104910000120887002490098085803B0F0BD0000DB
:1049200060030020CC03002050030020C40F0020AF
:10493000F90300208C2148430349085C022801D276
:104940000020704701207047FC0E0020F7B5154687
:104950002846FCF7CFF90646300007D0072D02D8CD
:10496000002021218855344600271BE00120FEBD90
:10497000292D03D32922293DEDB201E02A46002545
:10498000F0202071A2726272002020720198C11979
:1049900020460B30FDF710F92068002802D00446AD
:1049A0002937FFB2002DE3D1E620307172B60098AE
:1049B000FFF7C0FF00280BD000980949C00040183D
:1049C000016800290AD00E60046062B60020FEBDB6
:1049D0003046FCF7A1F862B60120FEBD4660F3E761
:1049E000AC030020F8B506460F4615463046FFF7E3
:1049F000A1FF002825D0FCF721F90446200022D091
:104A00000020072D01D821210855E6212171A5722A
:104A10006572207220462A4639460B30FDF7CCF8E5
:104A200072B63046FFF786FF00280ED00B49F00023
:104A30004018016800290FD00C60046062B60020A5
:104A4000F8BD0120F8BD0120F8BD0021204603F08B
:104A50001BFC62B60120F8BD4460EEE7AC03002009
:104A6000F8B506460F461546FCF7FEF8044620004A
:104A700019D00020072D01D821210855E6212171E8
:104A8000A5726572207220462A4639460B30FDF722
:104A9000C4F80749F00040180168002905D00C60EF
:104AA00004600020F8BD0120F8BD4460F8E7000074
:104AB000AC03002070B505461B4E716AC88B0A8E88
:104AC000904214D90A780423412A0CD03046406A17
:104AD0006030582A0DD0812A05D0982A07D1827ECD
:104AE000002A05D005E00B70284600F029F970BDBA
:104AF0000B700B70827E0024002A05D080314A7032
:104B0000C27E8A708476C476FCF7AEF87421017197
:104B10008472C572716A80314A7802734978417330
:104B2000042103F0CFFB70BD50030020F8B53049DD
:104B3000012048702F48552600782F4D66282BD02D
:104B40003E2002F029FF3040044672B621463E2046
:104B500002F07AFF62B6600605D572B6FDF766FC14
:104B6000FDF7F0FC62B6E00703D072B6FDF722FC59
:104B700062B6142004420ED0600706D51F48017AA1
:104B8000C02001436B2002F05FFF72B60020287046
:104B9000FEF784FE62B6F8BDAA273E2002F0FCFEB6
:104BA00004463C42F9D1344072B61549002C0AD073
:104BB0002C702046BF22104000D0087021463E20B5
:104BC00002F042FFC6E7287842060ED54028C1D140
:104BD0000878012805D0042805D01028BAD104246B
:104BE000B8E71024B6E70124B4E74024B2E7000098
:104BF0005003002047030020F90300203C1100204F
:104C0000FA030020002005498C2242438A5C012AD5
:104C100003D0401CC0B20028F6D07047FC0E002024
:104C200070B5064D84002859002806D0B0210171C6
:104C3000002103F047FB0020285170BD78030020BD
:104C4000FFB581B00E4615461F46FBF7F7FF044639
:104C5000E82020712772E672681CA072002D05D032
:104C600020462A460C300199FCF7A6FF0021204679
:104C700003F00AFB05B0F0BDFFB581B00E46154646
:104C80001F46FBF7F1FF0446E82020712772E67209
:104C9000681CA072002D05D020462A460C300199D0
:104CA000FCF7BBFF0021204603F00CFB05B0F0BD74
:104CB00070B504460D46FBF7D7FFC47285726321B9
:104CC0000171042103F0FEFA70BD70B504460D4673
:104CD0001646FBF7B3FF6621017144728572C672F6
:104CE000042103F0D1FA70BD70B504460D46164696
:104CF000FBF7A4FF7321017184728581C6810421B1
:104D000003F0C2FA70BD70B505460E461446FBF7B7
:104D100095FF742101718572C67204734473042176
:104D200003F0B2FA70BD70B504460D46FBF786FF7E
:104D3000622101714472C572042103F0A5FA70BDAD
:104D400010B50446FBF790FFE921017104720021C0
:104D500003F0B8FA10BD0000014620310A78407F08
:104D60001018024A105C087070470000149F000879
:104D700030B40022244C8300E558002D29D123496A
:104D8000C0004118224D6D6A4035ED7D002D15D0D3
:104D9000486800281DD0C07AC01E0F2819D205000F
:104DA0007D442D796D19AF440707070714141407C4
:104DB000071407141414070001220AE04D68002D9F
:104DC00001D0012205E0134941184868002800D0AD
:104DD0000122002A15D04868E0504A6810684860EF
:104DE0004868002802D00579F02D05D00020106019
:104DF0004A68002A04D004E0024600684860EFE7F1
:104E00000860E05830BC704760030020B403002005
:104E100050030020AC030020F8B507468C20304931
:104E2000784346182F48FD00281808222E49FCF721
:104E300083FE8C222D493046FCF77EFE72B601209F
:104E4000307080367070B0701B20F07030717071EF
:104E5000B071244EBA00883EB058254B0027002878
:104E600012D0002807D01978491C19700168002950
:104E700001D00846F5E7002806D01E490968016000
:104E80001C48B1580160B75062B60020002804D019
:104E9000012806D002280BD107E012493C396C18D2
:104EA00006E0104934396C1802E00E492C396C18B0
:104EB00072B62668002E0DD061681A78521C1A70DE
:104EC00009680029F9D10B4A1168316061681160E5
:104ED0006760276062B6401CC0B20328D6D3F8BD15
:104EE000FC0E0020E8030020DE9E000830A0000831
:104EF000380300203C030020F8B507468C203049D9
:104F0000784346182F48FD00281808222E49FCF740
:104F10002AFE8C222D493046FCF725FE01203070F8
:104F200080367070B0701B20F07030717071B0718D
:104F30002749C878401CC870BA00264F264BB8587D
:104F4000002812D0002807D01978491C1970016870
:104F5000002901D00846F5E7002806D01F4E316829
:104F60000160B85830600020B85000211C482F184C
:104F70001C48281884461C482E18002904D00129F2
:104F800004D0022905D103E03C4602E0644600E07B
:104F900034462568002D0ED060681A78521C1A70AD
:104FA00000680028F9D10D4A106828606068106018
:104FB000002060602060491CC9B20329DDD3F8BD20
:104FC000FC0E0020E8030020DE9E000830A0000850
:104FD0005003002060030020380300203C03002021
:104FE000AC030020B4030020BC030020F8B5064643
:104FF000183605463235002300240020315C01229A
:10500000114202D02B55641CE4B25B1CDBB2520689
:10501000120E002AF4D1401CC0B20528EED3252C74
:105020000DD02520001BC2B228192946FCF7C4FD6B
:1050300003E0641EE4B2285D2854002CF9D1F8BDC9
:1050400010B502F0B3FB04462079B038C0B2044971
:1050500080000958204688472046FBF73DFD10BDDB
:10506000D8A0000870B5104EF47A40252C43214694
:10507000792002F0E9FCF4720C49012008730C4815
:105080000078662805D0717A2943772002F0DCFC8D
:1050900070BD0849727A08791043284308710522C7
:1050A000732002F0EBFD70BD3C1100205003002086
:1050B00047030020E00300200448026BC16A8918FE
:1050C000C1620348C078801CC0B270475003002002
:1050D0007C030020064A0020D062506A8721095CC8
:1050E000044B89005958408C4843106370470000B6
:1050F00050030020F49E00080948406A418C027861
:1051000080305306002B06DA064BD25C002A02D010
:10511000428952184281028951180181704700006A
:10512000500300206E9F000808494879042809D0E0
:10513000074AC0008018C8618078042803D0C000E6
:1051400080180862704700200862704750030020F2
:10515000EC1000200C4AD169887813798B70517952
:10516000117150710021042809D0106AD061807833
:10517000042806D00549C000401810627047D1616C
:10518000F6E711627047000050030020EC10002089
:1051900010B507484179042904D0C069406802F07D
:1051A000E5F910BD1920800102F0E0F910BD000002
:1051B0005003002030B4104A116A887813798B703C
:1051C00053791371507100230C4C04280ED0C00089
:1051D0000019D061456849686918416080780428E1
:1051E00006D0C0000019106230BC7047D361F6E7EA
:1051F000136230BC7047000050030020EC10002008
:1052000073B50E4603221D49A62002F001FDFBF7EF
:105210002BFD04466B2020713146204606220831C2
:105220000D30FCF7FAFC68460078410602D50121F2
:10523000217301E0002121730007000FE0720128B3
:1052400019D0684640788006800E801FC5B2E5748C
:10525000002D06D0314620462A460E311430FCF788
:10526000DCFC01F023FF611908750421204603F0DE
:1052700029F802B070BD0025E9E700000004002015
:1052800070B5114DEC7ABF2004402146792002F020
:10529000DBFBEC720D49022008730D4801784020B9
:1052A000662905D0697A0143772002F0CDFB70BDF5
:1052B000084A6B7A11791943014311710522054996
:1052C000732002F0DBFC70BD3C1100205003002075
:1052D00047030020E003002070B505460D4C0E4941
:1052E000207810220007000F41182846FCF73BFCED
:1052F0002078C00704D02946204604F0B5F970BDD7
:10530000044804F0D7F9284604F0C8F904F0A6F9D7
:1053100070BD0000840300207E9F00083EB501217F
:10532000084601F02DFE08210120FBF7BBFBFF2002
:1053300001300090002469460C714C718C716846F4
:10534000FBF784FB0720694608724C728C7202A836
:1053500000F0DAFB3EBD3EB500F01CF80121084626
:1053600001F00EFE08210120FBF79CFBFF2001301D
:105370000090002468460471447101258571FBF793
:1053800065FB0721684601724472857202A800F02D
:10539000BBFB3EBD08B50121880401F0D9FD68467C
:1053A000FBF744FCFF20013069460880012088702B
:1053B0000420C8700148FBF7DDFB08BD000400486D
:1053C00000BF704710B58CB00C46122811D20100F6
:1053D0007944097949188F440C081426B45F814F29
:1053E000BAC0C6CCDAE00EEAF2F821460120FBF79B
:1053F000CFF80CB010BD00210E20FBF7C9F80CB09F
:1054000010BDE07AE11C0930C2B201A8FCF7D4FB60
:10541000E07A0C34005D08A9087301A90220FBF7AB
:10542000B7F80CB010BD2146887808AA1070C8786B
:105430005070487B0A7B000210436A465085C87B47
:105440008A7B000210436A469085087908AA90700A
:10545000487C0A7C000210436A46D085487908AA35
:10546000D0700622891D09A8FCF766FB08A9032055
:10547000FBF78EF80CB010BDA07808A90873E0788F
:1054800048730BA90720FBF783F808A9087BFF21C5
:1054900003F0C6FB0CB010BD607808AA107221782A
:1054A0005172002908D0002103F0BAFB0AA9062096
:1054B000FBF76EF80CB010BD002103F00FFC0028C4
:1054C000F8D108A8007A002103F0AAFB08A8007A06
:1054D000414A012103F0CAFF0CB010BDE07808AAD0
:1054E0001072A178517261792279090211436A46DA
:1054F0005185E179A279090211436A469185617A61
:10550000227A090211436A46D185002103F0E6FBA5
:10551000002804D108A8007A002103F081FB08A824
:10552000007A012103F0DAFB012804D108A8007AEF
:10553000012103F075FB0AA90620FBF729F80CB03E
:1055400010BD00210420FBF723F80CB010BD21464C
:105550000820FBF71DF80CB010BD21460920FBF711
:1055600017F80CB010BD21460A20FBF711F80CB05B
:1055700010BD2078194A022103F078FF60780028D6
:10558000F5D021460B20FBF703F80CB010BD2146E7
:105590000C20FAF7FDFF0CB010BD21460D20FAF7E4
:1055A000F7FF2078022103F03BFB0CB010BD214631
:1055B0000F20FAF7EDFF0CB010BD06E0FFE7214623
:1055C0001020FAF7E5FF0CB010BD21461120FAF7C4
:1055D000DFFF0CB010BD00000053070080A90300DE
:1055E0007047000038B50446A27A21460B31CF2A15
:1055F0003CD00ADCC32A27D0CC2A13D0CE2A03D130
:1056000000210E20FAF7CAFF38BDD02A17D0254650
:105610000C35DD2A21D0EB2AF6D129460920FAF7EC
:10562000BDFF38BD0120FAF7B9FF124912484A7888
:1056300002700622891C801CFCF7BEFA38BD0021CE
:105640000420FAF7ABFF38BD607B69460870A07B89
:1056500048700A20FAF7A2FF38BD03F0ABFB102018
:10566000607329460D20FAF799FF38BD0F20FAF72D
:1056700095FF38BD47030020C104002010B5C17A52
:10568000CF2904D1014609310F20FAF787FF10BD59
:105690007047000010B5044603F08CFB05490978FB
:1056A000C90600D500BF214608310720FAF776FF6A
:1056B00010BD000030040020F8B504462E4F01262E
:1056C000B87C00283BD1E07A012838D12B48857A74
:1056D0002B4800780540E8071BD0A07A1023294A00
:1056E000062103F0FEFEA07A0A23274A072103F0D1
:1056F000F8FE102223492548FCF75EFA08222249C9
:10570000F81DFCF762FA022221492248FCF75DFAF3
:10571000BE74A8070BD5A07A10231F4A082103F0F6
:10572000E0FEA07A0723144A092103F0DAFE680795
:1057300005D5A07A1023194A0A2103F0D2FEF97C7C
:105740001748002902D00221017000E006701548B8
:105750000670154800250570FBF770FA7721017176
:10576000A17A01724572042102F08EFD0F48007883
:10577000000600D500BFF8BDD0130020F5130020AF
:10578000AC0400204014002050140020E41300203A
:1057900058140020DF1300206C0400207C0400203B
:1057A000A8040020A7040020B50400203004002035
:1057B00070B504460F481049C27C0120002A02D06F
:1057C00002220A7000E008700C4908700C4800259D
:1057D0000570FBF733FA77210171A17A01724572E6
:1057E000042102F051FD0748C078000600D500BF33
:1057F00070BD0000D0130020A8040020A7040020E2
:10580000B50400203004002000BF7047704700003E
:1058100010B5074A1279920609D5064A12789207FE
:1058200005D5014608310220FAF7B8FE00BF10BDC9
:10583000300400202904002010B5044615480079E2
:10584000800618D514480078C00714D000BF07227E
:1058500021460D311148FCF7AFF9E07A1049C0003C
:10586000401808220F49FCF7A7F9E07A04230E4AF2
:10587000582100F093F903F03BFAE17A0B4A172024
:1058800050540B4900200870214608310320FAF7D4
:1058900085FE10BD3004002029040020D013002014
:1058A000AD040020C104002084030020A5040020D2
:1058B0003504002010B508490979890604D507493F
:1058C0000978490700D500BF0021817201460831DF
:1058D0000620FAF763FE10BD3004002029040020E2
:1058E00010B5074A1279920608D5064A1278520670
:1058F00004D501460A311120FAF750FE10BD000010
:105900003004002029040020F8B50546FBF796F97D
:105910000446304E2846B17C00270B30002917D0B2
:105920000A22F11DFCF728F9002837D0DD2020716C
:10593000A87A20720021204602F0A6FC26480079B1
:10594000800604D525480078C00600D500BFF8BD04
:105950000A222349FCF7E0F8002804D0DD2020715A
:10596000A87A2072E6E7DC202071A87A2072707C89
:10597000102801D9002202E01021081AC2B2002A20
:1059800003D017491748FCF7D7F8204610221549CD
:105990000930FCF71AF914480770CBE7DC202071B6
:1059A000A87A207220460930102210490546FCF7DB
:1059B0000CF9707C102801D9002202E01021081A8D
:1059C000C2B2002A03D006492846FCF7B5F80648BB
:1059D0000770AFE7D0130020300400202904002016
:1059E00030A0000800140020A7040020E4130020C9
:1059F00010B5074A1279920609D5064A527812075D
:105A000005D501460A310820FAF7C8FD00BF10BDD0
:105A1000300400202904002004480079800604D5C1
:105A200003480078000700D500BF7047300400200D
:105A300029040020014800798006704730040020C6
:105A400010B5014608310C20FAF7A8FD10BD7047CB
:105A500000BF704702484078000700D500BF70477C
:105A60003004002010B5014608310B20FAF796FDEE
:105A700010BD10B5014608310D20FAF78FFD10BD9D
:105A800070B5417B072918D2044678212046217140
:105A9000017A0A48C1760025094E002C0DD02079E4
:105AA00078280AD12146A27A70190B31FCF784F8C4
:105AB000A07A4019C5B22468EFE770BD51120020EA
:105AC0007111002000BF70477047704700BF7047DA
:105AD00000BF704710B5007A8C2148430249401836
