:020000040800F2
:10000000200A0020E100000807010008090100089B
:1000100000000000000000000000000000000000E0
:100020000000000000000000000000000B010008BC
:1000300000000000000000000D010008ED21000894
:100040001101000811010008110100081101000848
:100050001101000811010008110100081505000830
:100060000000000011010008D50300080904000881
:100070001101000811010008110100081101000818
:10008000110100080000000000000000110100083C
:100090000000000011010008110100081101000812
:1000A0000000000011010008110100081101000802
:1000B00011010008000000001101000811010008F2
:1000C0000448854600F0A4F800480047A528000829
:1000D000C046C046200A00200138FDD1704700000C
:1000E0000C4880F308880C480168090E0B4A9142BD
:1000F00005D10B480B4901600B480C4901600C48C5
:1001000080470C480047FEE7FEE7FEE7FEE7FEE714
:10011000FEE70000200A0020040000001F0000008D
:100120001810024001000000000001400000000023
:1001300049220008C100000830B50B4601460020E6
:100140002022012409E00D46D5409D4205D31D46DD
:100150009540491B2546954040191546521E002DD5
:10016000F1DC30BD70B500242546002801DA0124F9
:100170004042002901DA01254942FFF7DDFFAC4288
:1001800000D04042002C00D0494270BDD2B201E004
:100190000270401C491EFBD270470022F6E710B5E2
:1001A00013460A4604461946FFF7F0FF204610BDE5
:1001B000F0B51FB40646002082B0054640240191E8
:1001C00000901BE0019922460F46304600F042F8AD
:1001D000049A059B801A994110D31046194622466D
:1001E00000F028F8361A8F4101972246012000219D
:1001F000009F00F01FF838184D4100902046641E03
:100200000028DFDC019B00982946324607B0F0BD8C
:10021000064C0125064E05E0E36807CC2B430C3C59
:1002200098471034B442F7D3FFF74EFFDC2C000898
:10023000FC2C000810B5202A04DB0146203A91402E
:10024000002010BD914020239C1A0346E34019432F
:10025000904010BD10B5202A04DB0846203AD0405B
:10026000002110BD0B46D340D0402024A21A91405B
:100270000843194610BD70B58C180578401C6B07F3
:100280005B0F01D10378401C2A1106D10278401C73
:1002900003E006780E70401C491C5B1EF9D12B0749
:1002A00005D40023521E0DD40B70491CFAE70378C5
:1002B000401CCB1A921C03E01D780D70491C5B1C7E
:1002C000521EF9D5A142D8D3002070BD10B51348F5
:1002D00086B00EC86C460EC407C807C4104C002177
:1002E000204601F0E0FB204601F0CAFC0121204637
:1002F00001F0C2FB0021204601F0BEFB00231A469C
:100300006946084801F06EFD064800231A4603A915
:10031000143001F067FD06B010BD0000C42C0008C9
:10032000003800404400024070B51B4C0F221949B0
:10033000A01C00F0C9F90620A0716088174D81004B
:100340004018608001202870022068700320A87087
:1003500000261220EE700F496074024614312018F6
:1003600000F0B2F90E212046203041740A460949B6
:100370001230253100F0A8F972B6094880220178C0
:100380001143017028782070A6800420607062B646
:1003900070BD0000080000208402002092000020B0
:1003A000450000200148006870470000B4000020AC
:1003B00010B572B602F018FA02F028FA00211920DE
:1003C000800101F021F902F02BFA01F045FA62B642
:1003D00010BD000070B5202000F056F80124094D32
:1003E000002803D06C70202000F02AF80126760245
:1003F000304600F049F8002803D02C70304600F059
:100400001FF870BDE201002070B50126760330466A
:1004100000F03AF80124094D002803D06C703046F2
:1004200000F00EF801267604304600F02DF8002882
:1004300003D02C70304600F003F870BDE2010020BC
:1004400001494860704700000000024002685208FD
:1004500052000A430260704710B50168490849001C
:1004600001600021016041608160C160C0B205216E
:100470000838FFF761FE0F218140024842681143AE
:10048000416010BD0000024003490968014201D0EB
:10049000012070470020704700000240002A0268D7
:1004A00001D00A4300E08A430260704710B50A7A1F
:1004B0008B7D4C7C1A430B7C23431A434B8A1A4393
:1004C0008B8A1A430B8B1A434B8B1A430368094CD4
:1004D00023401A43026002680123DB039A438B8B9B
:1004E0001A430260CA6842600A6882604968C16053
:1004F00010BD00000F80FFFF00210160416001720C
:10050000C16001744174418281828175018341839C
:100510008183704770B5FF240134204600F01CF839
:1005200000280FD0204600F011F8074D04E000F03D
:1005300077FC012002F026F92146284600F0B3F8A6
:100540000028F4D170BD0000000400480149486152
:10055000704700000004014005494A69024204D086
:100560000968014201D00120704700207047000057
:100570000004014000B50346006802F013F99879C1
:1005800000281AD019791048002909D041681A6842
:10059000114341605979022907D000290ED008E0A3
:1005A00001681A6811430160F4E781681A68114311
:1005B0008160C1681A681143C16000BD81681A6812
:1005C0001143816000BD0000000401408B08084A0F
:1005D00010B59B009A1893688907090F0F248C4067
:1005E000A3439360936888400343936010BD000069
:1005F0000000014072B6002800D0FEE762B67047E6
:10060000F0B5CA7813071B0FD20601D58A781343B9
:1006100000229406240E0E88012595402E4207D014
:1006200005680F26A640B5431E46A6403543056023
:10063000521CD2B2082AECD30A88071D120A94462B
:1006400000229406240E012595406646354207D0C7
:100650003D680F26A640B5431E46A64035433D6083
:10066000521CD2B2082AECD3CA78282A06D0482ACB
:1006700003D1026909880A430261F0BD4269098811
:100680000A434261F0BD4B0710B5DB0E082901D2C9
:10069000203000E024300F249C4001689A40A143A0
:1006A0001143016010BD8068084000D001207047F0
:1006B00041617047016170470021C94301800221F7
:1006C00081700421C1707047002A05D0521E1206A5
:1006D000120E8B5C8354F9D1704730B40023002A8A
:1006E00007D9CC5CC55CAC4203D15B1CDBB2934246
:1006F000F7D3D01A30BCC0B270470000F8B5FC4840
:10070000FC4D0078FC4EFD4CFD4F0C2838D038686D
:100710006A4641881180FB4A1288914275D1694628
:100720000A78F9490B78D2180A70017902296DD23A
:1007300000296DD0052000F0D1FFF449F44B088862
:100740000022401F088020684188491F4180386886
:10075000002101710521418029686868C91850414C
:10076000296068602879C006C00E28713068401D75
:100770003060F078EF287DD90007000FF07083E239
:10078000E4480078400928D0E34DD9482978017021
:1007900000F0BCFB3868012101710521418020680F
:1007A000FF22027102782A700C22DA4C0270227841
:1007B00013060ED55206520E10231A4322703A68C1
:1007C00051714171D54989790A07D549120F895C60
:1007D0004180052000F082FFF8BDD24B296868688F
:1007E000C91800225041296068602879C006C00EEF
:1007F000287119203168800108183060F078EF28DE
:100800007DD90007000FF07047E249E296E0FFE76C
:10081000022000F063FF02F095F901F01DF838683E
:100820004579052D26D3C04800F00CFD0422BF49B0
:100830007A2001F0DDF900219B2001F0C9F8052D97
:1008400018D1B64E88217078B94A41438918B94AFF
:100850001160B0490978C90617D4052803D200F001
:1008600037FB0520707000F0EBFF00F085FBA0481F
:10087000007800E0FCE00C2804D03868408800F0E4
:100880002DFFF8BD19208001F9E7AB48007800285A
:1008900001D0022070E0A9491120085600F014FE92
:1008A00000F090FB3078A64D285C02F07FF930789C
:1008B000A449285C085C00F0CFFD3178A248405C78
:1008C0003070B079A14905072D0F0870012D29D08E
:1008D000707C48709D4800F07FFDF079002823D09F
:1008E0009B4800F04DFF8D4E012D1FD01236002089
:1008F00000F064FE022D1BD000F0DAFD00E0CCE138
:1009000000F026FF8C480B210170304600F02CFFD0
:1009100020684188891E41803868032101710221C5
:100920004180B1E10C20D4E78A48DAE70936DEE7F6
:1009300000F002FF80480A210170E6E7704EFF29AF
:1009400054D0032912D1012000F0C8FE824801785A
:100950008248662913D0807A8106890E772001F0BB
:1009600013F830680121418002210171306840791B
:1009700005287DD30DD00920FFF73CFE84E12979BD
:10098000807A0522014329715A49732001F030F918
:10099000E7E7694800780C2813D00E2868D00F28A4
:1009A00008D02168488801281BD0401E488000F0EC
:1009B00091F969E12068408800F090FE00F0BEFAED
:1009C00062E120684188012902D0491E4180EEE79A
:1009D00000F0B2FE02F0B6F800F0B0FA00F068FDE8
:1009E00052E100F07BFE00F0A9FA4DE140790528C4
:1009F00003D30AD00C20FFF7FDFD4F480021017002
:100A000000F014FF002870D0EDE04B4800780D286E
:100A100002D00E2805D101E000BF02E00B20FFF755
:100A2000E9FD3C480078C00660D53C488079010764
:100A30003B48090F405C801CC3B231480068027813
:100A400010460C2A26D2354909788C4633494E88FF
:100A5000062501466943424D491921600D79022D51
:100A60000ED24D88ED1A0BD46746ADB2002F00E0D0
:100A70000AE101D04D800DE0284FBF88BE42F9D376
:100A80001F4D0878254F2960BD8849886918B980AD
:100A90000C28DDD31A49204E096835780D700127DE
:100AA0000F713178062569432D4D9B1E4D19256028
:100AB00029783170D9B22870698005236B71FF23C2
:100AC0002B710C285AD10C2A58D1144D6B881E2B2F
:100AD00048D02E78002E4AD0FF254135AB424FD367
:100AE00050256B1A6D462B804AE07AE068E00000E2
:100AF0004200002070000020A000002050000020D4
:100B00004C0000209E0000204400002090000020A7
:100B100071020000450000204100002084020020F6
:100B20007F000020400D03007C00002078000020A2
:100B3000D80200208C00002043000020C4020020C6
:100B400086000020F20500209200002046000020D0
:100B50005E0000206600002064000020E405002004
:100B60009C0500200A256B1A6D462B8008E0AD8895
:100B7000AB4203D95B1B6D462B8001E06D462F8095
:100B80004C4F6B463D681B884B4E6B80B58859189F
:100B90006918B1803178002907D171881E2901D0E8
:100BA0000021B1804549097831700C2A05D0824274
:100BB00003D04348027000F0A9F9386840880DE07E
:100BC00000F0BCF93E4800780C2805D03948006890
:100BD000408800F083FD10E71920800100F07EFDC1
:100BE0000BE701F0AFFF334D28684088022800D2A0
:100BF00047E634490878420946D0020644D5400603
:100C0000400E1022104308702B48807901072E48AF
:100C1000090F425C6846921C0280206801780C290A
:100C200013D22A4E06204843801920600379022BF4
:100C300007D243889B1A04D443889B1A5B1C4380C9
:100C400003E0017828600C29ECD3214B2E6818783A
:100C500030701878062670431C4F0126C019286092
:100C600006714680007806267043C019206004781B
:100C70001C700170921E4280FF2101712A680521BB
:100C80005171417100F042F90D4800780C28AFD045
:100C90000848006840885028AAD900F0E9FBF8BD50
:100CA000914205D9891A41804079052800D300BFB7
:100CB00000BFF8BD4C0000208402002092000020FC
:100CC00042000020450000207F0000209C050020FD
:100CD0004100002010B40D487D24026B416B1219B5
:100CE000002359410263416309480179C906C90ECD
:100CF000017108490868401C0860C878EF2802D9CB
:100D00000007000FC87010BC7047000040000020B2
:100D100070000020A00000203948006840790528B4
:100D20006DD36CD170B5374D0F24287890B00A2858
:100D300007D00B2808D00C2808D00D2802D101F0CC
:100D400001FF2C7010B070BD0C2053E02C7000F02F
:100D500080FA002816D002226946FF2000F015FF15
:100D6000294E2222B07904A90407240FFF2000F0A5
:100D70000CFF00F09DFB684600780107090F03296E
:100D80001BD105E000F094FB01F0DCFE10B070BD5B
:100D9000002C01D0062C10D1317C012901D003296F
:100DA00004D102A900F07EFD002806D16846007833
:100DB00002A900F05DFD002806D028780F28E5D1B3
:100DC00001F0C0FE10B070BDB079010909010F48F3
:100DD000091D01700E49497C891D417000F0FCFA23
:100DE000F079002809D00B4800F0CAFC0A4800F04E
:100DF000BBFC0D20287010B070BD0848F4E77047A8
:100E00004C00002043000020840200204600002007
:100E1000A40200205E000020B60200206600002030
:100E2000F8B500F021FA2848542700781426274DF9
:100E300066281ED03E2000F07DFD04463C4072B680
:100E40002C7021463E2000F0C3FD62B6344207D02C
:100E5000600701D501F09CFE72B6FFF75DFF62B638
:100E6000600603D572B6FFF749FC62B600F0F8FEE3
:100E7000F8BDAB243E2000F05DFD02462042F9D1D2
:100E800014463C4072B605D02C7021463E2000F03E
:100E90009FFD07E02878410603D5402802D114249D
:100EA00000E0402462B6344207D0600701D501F06B
:100EB0006FFE72B6FFF730FF62B66006D8D572B625
:100EC000FFF71CFC62B6F8BD640000209C00002007
:100ED000704700008821484310B50B498822441808
:100EE000DC392046FFF7F0FB72B601212046217065
:100EF0006030417781771B21C17780342170617028
:100F0000A17062B610BD0000D8020020094988789F
:100F10000C280BD006225043074A8018C86000787E
:100F20000C2804D00623584380180861704700201D
:100F3000FBE70000400000209C0500200C4AD1681F
:100F4000537808780B7091785170002190700C28BC
:100F50000AD01069D06000780C2806D006214843DA
:100F60000449401810617047D1601161704700005A
:100F7000400000209C05002030B4104A11695378CD
:100F800008780B70937853709070498800230C2870
:100F900010D0062460430A4C0019D06045886918B7
:100FA000418000780C2806D00621484300191061C2
:100FB00030BC7047D360136130BC704740000020E4
:100FC0009C05002070B5114D2C7BBF2004402146AC
:100FD000792000F0FDFC2C730D49022008700D48AB
:100FE00001784020662905D0A97A0143772000F0D6
:100FF000EFFC70BD084AAB7A1179194301431171B6
:1010000005220549732000F0F3FD70BDE4050020C2
:101010009600002064000020700000203EB50121F1
:10102000084600F0AFF808210120FFF7CFFAFF20B3
:1010300001300090002469460C714C718C71684637
:10104000FFF798FA0720694608724C728C7202A862
:1010500000F036F83EBD3EB500F01CF80121084610
:1010600000F090F808210120FFF7B0FAFF200130CE
:101070000090002468460471447101258571FFF7D2
:1010800079FA0721684601724472857202A800F05D
:1010900017F83EBD08B50121880400F05BF86846EA
:1010A000FFF70AFBFF2001306946088001208870A5
:1010B0000420C8700148FFF7A3FA08BD00040048E7
:1010C00030B5827801240178002A15D08B080E4AA9
:1010D0009B009A1813688907C90EFF258D40AB4302
:1010E0004578AD072D0E8D402B4313600078C00668
:1010F000C00E8440054804E0C806C00E8440034882
:101100008030046030BD000000E400E000E100E059
:101110008307FF22DB0E9A408907090E99400028B9
:101120000BDA0007000F0838830808489B001818DE
:10113000C36993430B43C3617047830804489B0012
:101140001818036893430B430360704700ED00E0F9
:1011500000E400E0044A0029516901D0014300E0A5
:10116000814351617047000000100240044A002989
:10117000D16901D0014300E08143D1617047000093
:1011800000100240044A0029916901D0014300E0A7
:1011900081439161704700000010024010B500F0DB
:1011A0002DF804494968044A0906090F515CC840F2
:1011B00010BD000000100240E801002010B5FFF74C
:1011C000EDFF04494968044A4905490F515CC8408C
:1011D00010BD000000100240E801002010B5FFF72C
:1011E000DDFF04494968044A8904490F515CC8403D
:1011F00010BD000000100240E801002010B50E4AAA
:1012000051680C2001400D48042914D0082912D13E
:101210005168C90304D55168890302D5401000E024
:10122000074811688B0E11685B1C4902490F58432F
:10123000491CFEF781FF10BD0010024000127A0029
:10124000001BB70010B503220146702000F0D0FC4F
:1012500010BD10B56B2000F06DFB400701D50120DB
:1012600010BD002010BD000070B5084D6879012840
:101270000AD1074CE178292000F0AAFB21792A2025
:1012800000F0A6FB0020687170BD000098000020EF
:10129000E4050020F0B59FB078216846FEF77DFF99
:1012A000FFF7BCFE002000F01FFB444D287000201B
:1012B00043490A46803A434C0B5CD35C2354401CA0
:1012C0000E28F9D302203E4EAA3E1B223E49F06171
:1012D000FE2000F08DFC272231463231082000F03C
:1012E00087FC5122314659312F2000F081FC2878AB
:1012F000662807D130466A30817A082001434A20A7
:1013000000F042FB207A802108432072217A692074
:1013100000F03AFBFF2000F0D1F80D21AC2000F0E6
:1013200033FB4021AF2000F02FFB0021FA2000F01A
:101330002BFB7F213E2000F027FB8021662000F060
:1013400023FB01F017FC01F023FCA07A8006800E3D
:10135000A072A17A772000F017FBE07A04252843D9
:10136000E072E07A5F210840E072E17A782000F0D4
:101370000BFB01F0CBFB002000F00EFAF078012708
:10138000002802D101F02CFBF770607828436070D0
:101390006178242000F0F8FA00219B2000F0F4FA94
:1013A000FFF759FEFFF704F800F000FA01467770E6
:1013B00006A001F05DF81FB0F0BD00006400002041
:1013C00042010020E4050020FC010020766F6C74CF
:1013D0003D25640A0000000010B50022034B0146C1
:1013E000FE20DA6100F016FB10BD0000980000201E
:1013F00038B5192000F0F2FE01218804FFF7AAFE9B
:101400006846FFF759F90124640269460C800120FF
:10141000887010200F4DC8702846FFF7F1F821465C
:101420002846FFF747F9012000F0D8FE214628465C
:10143000FFF73EF9012000F0D1FE21462846FFF7D4
:1014400039F9322000F0CAFE00F06AF8FFF722FFF7
:1014500038BD00000004004810B50449097B890923
:10146000890101430C2000F08FFA10BDC20000205A
:1014700070B500F09BF90C4DE978E02001432C7920
:1014800081200443292000F07FFA21462A2000F021
:101490007BFA012005494871E97A802001437820D0
:1014A00000F072FA70BD0000E405002098000020F2
:1014B00010B580216B2000F08BFA10BD10B50146ED
:1014C000A52000F085FA10BD10B5002807D004282B
:1014D0000BD008280FD00A2813D0012010BD0422F9
:1014E0000B49172000F084FB10E004220949172063
:1014F00000F07EFB0AE004220749172000F078FB89
:1015000004E004220549172000F072FB002010BD02
:10151000A4000020A8000020AC000020B0000020A3
:10152000F8B500F0DFFA0125234C2D03A0896E00E9
:101530002843B0434004400CAF00B843291188430E
:10154000A081192001F01EF98821F82001F03EFB4E
:10155000192001F017F94621F92001F037FB192075
:1015600001F010F900F0BEFAA08961012843304370
:1015700008433843C9110843A0810A2000F02EFE19
:10158000FFF788FDFEF7A2FEC621F92000F0FCF966
:10159000C021352000F0F8F9C021282000F0F4F92E
:1015A000192000F01BFE8021352000F0EDF90A2003
:1015B00000F014FEF8BD00000004004810B5084A11
:1015C000002804D01F21D07A0823184303E01121FA
:1015D000D07AF7231840D0725E2000F0F9F910BDE0
:1015E000E405002010B5074A0028D17A02D008206F
:1015F000014301E0F7200140D172782000F0E8F9C2
:1016000010BD0000E4050020F0B583B00F4604468D
:10161000002000902E4D0190E979BF200140E97132
:101620003D2000F0B1F900219F2000F0ADF98026A7
:1016300069460E710522622000F0DAFA00F010FB14
:1016400020467D214843002222490A604A606946BB
:101650000870020A4A70020C8A70000EC8701E4898
:1016600000786628A87A26D0400940012021084346
:10167000694608710522732000F0BAFA00F0F0FA0A
:10168000A97ADF200140772000F07EF9E979402037
:101690000143E9713D2000F077F9A0B200F01EF897
:1016A000012F12D0E87A4106490EE972782000F045
:1016B0006BF903B0F0BD40094001087105227320A9
:1016C00000F096FA00F0CCFAE0E7E97A3143ECE773
:1016D000E4050020700000206400002038B50546B5
:1016E0002C467D204443C0072043009004226946D5
:1016F0009C2000F07DFAE2170C48436801686118ED
:101700005A41426001600179C906C90E0171084958
:10171000886840198860074AD078EF2802D9000706
:10172000000FD070CD8000F09BFA38BD7000002013
:1017300098000020A000002010B50448C17AFB22C8
:101740001140C172782000F043F910BDE40500207B
:1017500010B50448C17A04221143C172782000F008
:1017600037F910BDE405002010B50822034BDA61FB
:101770001F220146FE2000F03BFA10BD9800002019
:1017800010B50222034BDA6106220146FE2000F06A
:101790002FFA10BD9800002001B569460888C005E1
:1017A000C00D0880682000F035F908BD38B500206C
:1017B00069460870042000F097F8694608700878B8
:1017C0008006C00F0870174D28780978884202D12A
:1017D0006878002817D1144CA07850210843A070D5
:1017E000A178282000F0D0F80A2000F0CBFF68464E
:1017F00000780128A0780CD0EF210840A070A178D3
:10180000282000F0C1F86846007828706846007803
:1018100038BDBF210840A070A178282000F0B4F89E
:10182000F1E7000098000020E4050020034800785C
:10183000800701D0002070470120704796000020EB
:1018400010B50448C179EB221140C1713D2000F070
:10185000BFF810BDE405002010B50448C17914227A
:101860001143C1713D2000F0B3F810BDE405002024
:1018700010B5094A0E31D279002A06D0000609D5E2
:1018800006220648FEF729FF10BD000602D40622F4
:101890000348F7E7012010BD840200205E0000200D
:1018A00066000020F8B50025400600D5012500247B
:1018B0000C4E0F460837E000001B315CA94207D1EF
:1018C000811906223846491CFEF707FF002803D07D
:1018D000641CE4B2042CEED3042C01D00020F8BD2B
:1018E0000120F8BD8005002070B5044672B6104D89
:1018F000A96A284649084900A96221468022114365
:1019000000F0EAFB200601D5012100E00021284675
:1019100000F0E2FBFF21284600F0DEFBF52128461F
:1019200000F0DAFBA96A01221143A96262B670BD18
:101930000038004070B5134D0446A96A284649088E
:101940004900A96221468022114300F0C5FB200610
:1019500001D5012100E00021284600F0BDFBFF2C4D
:1019600003D1FF21284600F0B7FBFF21284600F0F5
:10197000B3FBF521284600F0AFFBA96A0122114311
:10198000A96270BD0038004070B50D46044672B6BD
:101990000E4EB16A304649084900B1626106490EEF
:1019A00000F09AFB200601D5012100E0002130461D
:1019B00000F092FB29463446304600F08DFBA16AC8
:1019C00001221143A16262B670BD000000380040E0
:1019D00070B50F4E0D460446B16A304649084900BD
:1019E000B1626106490E00F077FB200601D50121A6
:1019F00000E00021304600F06FFB294634463046B7
:101A000000F06AFBA16A01221143A16270BD0000CF
:101A10000038004070B5174D0E460446A96A2846A6
:101A200049084900A9626106490E00F055FB2006ED
:101A300001D5012100E00021284600F04DFBFE2CDD
:101A40000BD1FEF7AFFC0446C1B2284600F044FBC0
:101A5000E005C10F284600F03FFB3178284600F032
:101A60003BFB7178284600F037FBA86A0121084348
:101A7000A86270BD00380040102300290AD0082257
:101A800001290AD002290BD0032902D1816991438F
:101A90008161704781691943FAE781691143F7E76A
:101AA00081699943F4E70029816A02D04908490015
:101AB00001E001221143816270470029816902D04F
:101AC0000122114301E04908490081617047012268
:101AD00052020029816901D0114300E091438161E4
:101AE0007047000038B501218804FFF733FB6846D2
:101AF000FEF7E2FDF12000026946088001208870AF
:101B00001020054CC8702046FEF77AFD6946204635
:101B1000FEF776FD38BD00000004004830B50B79B3
:101B20000124A4020422202B03D1836955022B43F4
:101B300083618369A3430C892343836183690C78A0
:101B4000934323438361C36993430A7B1343C36174
:101B5000C26902239A434B791A43C261C2698B79E5
:101B6000520852001A43C261C26908231A43C26173
:101B7000026A4B89120C12041A430262C26A097982
:101B8000520952010A43C26230BD10B5521C00F026
:101B900001F810BDF8B5154D0F460446A96A164662
:101BA000284649084900A96221468022114300F0D5
:101BB00093FA200601D5012100E00021284600F01B
:101BC0008BFAFF2C03D1FF21284600F085FAFF2174
:101BD000284600F081FA721E3946284600F0AAF91C
:101BE000A96A01221143A962F8BD00000038004033
:101BF00010B5521C00F002F810BD0000F8B5174DEA
:101C00000F460446A96A1646284649084900A962B3
:101C10006106490E00F060FA200601D5012100E0BE
:101C20000021284600F058FAFE2C0CD1FEF7BAFB32
:101C30000446C1B2284600F04FFAE005C10F28461D
:101C4000803100F049FA721E3946284600F0DEF96C
:101C5000A96A01221143A962F8BD000000380040C2
:101C600000207047002101704180082202714171FB
:101C700001228271018102224281017370470000BA
:101C8000F0B5554F00240125042685B0B8424DD14A
:101C900001218014FFF776FA6846FFF7E3FF6946F3
:101CA0000E704C80082008714C718D710C810220DF
:101CB00048810C733846FFF731FF01213846FFF7A2
:101CC000FCFE01214804FFF745FA01210846FFF711
:101CD00059FA0924E406002204212046FEF7D3FC29
:101CE000002205212046FEF7CEFC002206212046D8
:101CF000FEF7C9FC002207212046FEF7C4FC04A819
:101D0000FEF7DAFCB020694608828D741820C8748A
:101D100004A92046FEF774FC04A8FEF7CDFC402081
:101D2000694608828D744820C8744EE02B4FB84233
:101D30004FD101210014FFF719FA6846FFF792FF0F
:101D400069460E704C80082008714C718D710C81B1
:101D5000022048810C733846FFF7E0FE0121384627
:101D6000FFF7ABFE01218804FFF7F4F901210846D3
:101D7000FFF708FA1A4C00220C212046FEF783FCDC
:101D800000220D212046FEF77EFC00220E21204677
:101D9000FEF779FC00220F212046FEF774FC04A810
:101DA000FEF78AFC0B200003694608828D74182018
:101DB000C87404A92046FEF723FC04A8FEF77CFCA7
:101DC0003814694608828D74CE7404A92046FEF743
:101DD00017FC05B0F0BD00000030014000380040A5
:101DE00000040048F0B50E460746012189B01C46A4
:101DF00015460846FFF7AEF93F48874211D100214A
:101E00000746FEF723FB3846FEF726FB6846FEF73B
:101E100073FB3A48009001960020694608720395CA
:101E200016E03548143087422AD100210746FEF7D4
:101E30000DFB3846FEF710FB6846FEF75DFB2F48AA
:101E40000196001F0090102069460872002003953B
:101E500008744C74488288820322887512030A83AE
:101E6000488388833846FEF721FB01220221384649
:101E7000FEF714FB01213846FEF7E8FA09B0F0BD81
:101E80001D482830874211D100210746FEF7DEFAAF
:101E90003846FEF7E1FA6846FEF72EFB1848009038
:101EA0000196002069460872039516E012483C30FE
:101EB0008742E3D100210746FEF7C8FA3846FEF70D
:101EC000CBFA6846FEF718FB0D480196001F0090FC
:101ED0001020694608720020039508744C744882EB
:101EE00088820322887512030A83488388833846D0
:101EF000FEF7DCFAC2E700001C000240043001409B
:101F00000438004008B5094B02220121984201D152
:101F10000A2003E0064B984207D10B206B4618704D
:101F20005A7099706846FFF7CBF808BD0030014041
:101F3000003800407CB514462F4A0CCA0092019329
:101F400000222E4D2E4E6A702A70B0421ED1802380
:101F500022462C48FFF746FF2A48002322466946BE
:101F60001430FFF73FFF34463046FFF7CBFF012127
:101F70002046FFF7ACFD69780029FDD029780029BB
:101F8000FDD000212046FFF7A2FD7CBD1E4B9842EC
:101F9000FBD11C4824308269520852008261826958
:101FA0008026B24382616A464262C4618269012529
:101FB0002A4382614268AA434260426832434260D7
:101FC0000161846041682943416098695A15104352
:101FD00098610C481C3801688904FCD5012149032B
:101FE000416001688903FCD5012149044160986979
:101FF000904398617CBD0000BC2C0008E2010020E9
:10200000003001401C00024000380040FEB50D4683
:1020100000212D4E2D4F717014463170B8421ED1E3
:10202000002369462A48FFF7DDFE2948802322461F
:1020300029461430FFF7D6FE3C463846FFF762FFCC
:1020400001212046FFF743FD71780029FDD031784A
:102050000029FDD000212046FFF739FDFEBD1D4BB4
:102060009842FBD11A4824308169490849008161AE
:1020700081698022114381614562C46185690121C2
:102080000D43856145688D434560456895434560CE
:102090006A460261846042680A43426098694A0263
:1020A000104398610A481C3801688904FCD5012155
:1020B0004903416001688903FCD50121490441605D
:1020C000986990439861FEBDE20100200030014014
:1020D0001C00024000380040002201600A4B03E06F
:1020E0001146521C994202D88168C907F8D00021D4
:1020F00003E00A46491C9A4202D882689207F8D542
:102100004068C0B270470000FFFF00003CB50024EB
:102110002F4800940194016801231B0419430160B6
:10212000590005252D0202680A400192009A521CAE
:102130000092019A002A02D1009AAA42F3D10168C2
:10214000890342D5012101917D210901491EFDD25A
:102150000199012938D11F490A68102422430A60D5
:102160000A68D208D2000A600C68022214430C608C
:1021700041684160416841604168540221434160C7
:10218000416803242404A14341600168124C2140AA
:102190000160416819434160016805239B061943AA
:1021A00001600168D3051943016001688901FCD50C
:1021B0004168890889004160416811434160416874
:1021C0000907890F0229FAD13CBD01943CBD0000EA
:1021D0000010024000200240FFFF8F00024908600B
:1021E00008680028FCD17047E4010020034801681A
:1021F000002902D00168491E01607047E4010020F7
:1022000070B50446FEF7FAFF2146FDF795FF0C492D
:102210000025ED43401E884203D9012000280AD042
:10222000FEE7084C606103212846FEF771FF00209D
:10223000A0610720206100212846FEF769FF70BDDC
:10224000FFFFFF0000E000E010B510480168012228
:102250001143016041680E4A1140416001680D4A16
:1022600011400160016801229204914301604168BC
:10227000C3221204914341600168074A1140016082
:102280009F2109048160FFF741FF10BD001002404B
:102290000CC0FFF8FFFFF6FEFFFF8F0082695208B7
:1022A00052000A43826170478068084000D00120D4
:1022B0007047000070B50446C0690D463021884360
:1022C00029790843E061E0690421AA798843104331
:1022D000E061E0692A7A800880001043E061A0692B
:1022E000182290436A891043A061A0698843297B22
:1022F0000843A0610A48844202D1FEF76FFF01E063
:10230000FEF75CFF06462968FDF716FF000920620C
:1023100030462968FDF710FF0007000F606270BDAE
:1023200000380140C9B2016070474B21C90101600A
:1023300030210171002181710172182242810173E3
:1023400070470000F0B50E4685B047490A9F1C460D
:102350001546884240D101218803FEF713FF6846E5
:10236000FFF7E3FF684600968580C480078100215F
:10237000818118243C4D448169462846FFF79AFF25
:1023800001214804FEF7E6FE01210846FEF7FAFEA9
:102390000921CE0601223046FEF775F901220A21F5
:1023A0003046FEF770F904A8FEF786F9691568460D
:1023B000018201218174C47404A93046FEF720F91A
:1023C0002915684601820421C17404A93046FEF72C
:1023D00017F90121284642E02449884241D10121D0
:1023E0004804FEF7C3FE6846FFF79FFF0096684665
:1023F0008580C48007810021818118241B4E44817F
:1024000069463046FFF756FF01214804FEF7A2FE59
:1024100001210846FEF7B6FE0927FF060122022128
:102420003846FEF730F9012203213846FEF72BF932
:1024300004A8FEF741F9042568460582012181744C
:10244000C47404A93846FEF7DBF808216846018207
:10245000C57404A93846FEF7D3F801213046FFF7CA
:102460001DFF05B0F0BD00000038014000440040F1
:102470000FB410B503A9044B044A029800F018F8F1
:1024800010BC08BC04B01847C5270008F80100209C
:1024900002E008C8121F08C1002AFAD1704770472D
:1024A000002001E001C1121F002AFBD1704700008B
:1024B000FFB58FB00F460446002606E025280AD057
:1024C000129A11999047641C761C20780028F5D147
:1024D000304613B0F0BD002501219F4A009500E071
:1024E0000543641C23780846203B98401042F7D1EE
:1024F00020782E2815D1042005436078641C2A28F2
:102500000AD101CF641C00900BE000990A225143CC
:1025100030394018641C0090207801463039092970
:10252000F3D920786C280ED004DC4C2813D06A280C
:1025300012D104E074280ED07A280DD10BE00120CE
:102540004005054307E00121090562780D438242F9
:1025500001D16D18641C641C2078692849D008DCFE
:102560000028B5D058286CD063280FD0642808D133
:102570003FE070286AD0732811D075285FD0782882
:102580005FD0129A11999047761CE3E0387869463B
:1025900008720020487202A80190012003E0386808
:1025A00001900020C0433F1D69070CD5002500E0C5
:1025B0006D1C00998D420FDA8542F9DB0199495D66
:1025C0000029F5D108E0002500E06D1C8542FCDB08
:1025D0000199495D0029F8D1761907E00198019920
:1025E0000078491C0191129A119990476D1EF5D2FD
:1025F000B0E00A20029000216802400F03910228F7
:102600000CD001CFC117844600290DDA60460A4676
:1026100040420021914184462D2008E0FF1DFF0823
:10262000FF0003CF8446EFE7280504D52B206A4638
:10263000107401203DE0E8073BD02020F7E70A2096
:1026400000E0102000210391029007E0102002908A
:102650000021042005430820039100906802400FE8
:10266000022811D001CF0021844600200D902807B8
:1026700020D52078864670280CD0029A1020039B23
:1026800042401A430CD015E0FF1DFF08FF0003CFA6
:102690008446EAE740206A46107401200D900CE061
:1026A0006046084306D030206A4610747046507465
:1026B00002200D902078582804D028A001900DA861
:1026C0000E900DE02AA0F9E76046039B029AFDF701
:1026D0006FFD019B84469B5C0E9A521E0E921370F6
:1026E00060460843F0D10E9805A9081A20300190E1
:1026F000680701D40120009000990198814201DD12
:10270000081A00E000200025009006E004A8129AB4
:10271000405D119990476D1C761C0D988542F5DB44
:1027200004E0129A302011999047761C0099481EB7
:1027300000900029F5DC08E00E980E990078491CFD
:102740000E91129A11999047761C0199481E01909A
:102750000029F1DC641CB8E609280100303132336D
:1027600034353637383961626364656600000000CD
:1027700030313233343536373839414243444546B7
:102780000000000010B50446054804490068FDF744
:10279000D3FC6043FDF7A0FC10BD000000093D0024
:1027A0000000002006490A6882430A604A688243A2
:1027B0004A608A6882438A60CA688243CA607047F6
:1027C0000004014070B5074D0446C1B22846FFF72A
:1027D000A9FD01212846FFF767FD0028F9D0204612
:1027E00070BD0000003801400021074841701121F0
:1027F00081702221C1703321017144214171552121
:1028000081717621C1717047640000200020024967
:102810000870024908717047960000209800002057
:1028200070B500242046FEF755FB641CE4B2052C6D
:10283000F8D3194B05211948197000220270417014
:10284000014620314A740621417408215A714030F2
:102850004174134C1046411C062568432154C8B2EC
:102860000C28F8D35A700C2098700B48DA70801D31
:102870001A718270014605220E311330FDF724FFD4
:10288000074A0020FC211C3AC3001B1A401CC0B29E
:10289000D1540428F8D370BD4000002084020020E9
:1028A0009C05002008B57D20C000FFF7A9FC002092
:1028B0000346E1210090302249020E48FFF742FD15
:1028C000FEF796FD0CA20FA111A0FFF7D1FD1BA0F2
:1028D000FFF7CEFD1FA0FFF7CBFD18A0FFF7C8FD47
:1028E0000020FFF701F801461FA0FFF7C1FDFDF72B
:1028F0001BFDFEE70038014031333A30383A3434BA
:102900000000000044656320313520323032300051
:102910000D0A52616661656C5F424C455F4D4D33F7
:10292000322044656D6F2072756E2E204E6F7720B9
:1029300069732025732025730D0A00002D2D2D2D80
:102940002D2D2D2D2D2D2D2D2D2D2D2D2D2D2D0DD7
:102950000A0000002020424C452053746172742EFE
:102960002E2E2E2E0D0A0000436869705F49443DEB
:10297000307825780D0A0000F8B50C460022164D77
:10298000164E51006B5A834201D1B05C1CE0834269
:102990001CD24F197F88874218D957007F197F882A
:1029A00099B2791AB5186F78B55C7A1BC01A424390
:1029B0000A205043FDF7D6FB80B20A21FDF7BCFB8D
:1029C000052900D3401C40192070F8BD521CD2B21A
:1029D000052AD6D3F8BD0000D8010020BD00002094
:1029E000F8B5002631463D20FEF7CEFFFF213E2000
:1029F000FEF7CAFFFF215B20FEF7C6FF012158202A
:102A0000FEF7C2FF3E4841780422114341704178ED
:102A10002420FEF7B9FF2020FEF71EFD0020FEF760
:102A2000E1FD72B60024374F7D1D385D00F0BEF821
:102A300000217720FEF7A8FF80217720FEF7A4FF72
:102A40007D20C000FFF79EFE0120FEF74DFF8006AF
:102A5000800E285500F05AF8641CE4B2052CE4D32B
:102A60002849491D4878097888420AD9254A521DC3
:102A70009178814205D9D078884202D91179814272
:102A80000BD824211F48401D0170262141702921A7
:102A900081702B21C1702D210171002418E0002CC0
:102AA00016D06700184839184039CD8F0CE0164809
:102AB0008838815D12480E3009182846FFF75CFF00
:102AC000AD1CADB2761CF6B20F48C05BA842EED882
:102AD000641CE4B2052CE2D30A48401D0179084881
:102AE0002E30C171FF213E20FEF74EFFFEF7B4FEEF
:102AF00062B60222034965315B20FFF779F8F8BD21
:102B0000E4050020B8000020D801002070B5802620
:102B10000B4D72B62C7B62B6214631437920FEF70D
:102B200033FF72B6287BA04203D121467920FEF7FD
:102B30002BFF62B672B6287BA04262B6E9D170BDA7
:102B4000E405002010B50948047B2146802001439C
:102B50007920FEF73DFF0648017889088900017059
:102B600021467920FEF734FF10BD0000E405002067
:102B70009600002010B50548417A80221143417229
:102B8000417A6B20FEF700FF10BD0000E405002035
:102B900010B50548417A402211434172417A6B20B9
:102BA000FEF7F2FE10BD0000E405002070B5064DF2
:102BB000297B8C09A4018006800E044321467920DC
:102BC000FEF706FF2C7370BDE4050020F3B53A4E06
:102BD0000121B089090308434F00B84381B08843FD
:102BE000B0810120FFF7CEFD019845066D0E00244F
:102BF0002806B08903D50121C903084301E0400438
:102C0000400CB0810120FFF7BDFDB0893843B08191
:102C10000120FFF7B7FDB089641CB843B081680696
:102C2000050EE4B2082CE3D30198C5090024280658
:102C3000B08903D50121C903084301E04004400CD9
:102C4000B0810120FFF79EFDB0893843B08101209B
:102C5000FFF798FDB089641CB843B0816806050E83
:102C6000E4B2082CE3D3029D00242806B08903D5E2
:102C70000121C903084301E04004400CB081012058
:102C8000FFF780FDB0893843B0810120FFF77AFD5E
:102C9000B089641CB843B0816806050EE4B2082C04
:102CA000E3D30120FFF76EFDB0890121090308433A
:102CB0004004400CB081FEBD00040048FFFFFFFF50
:102CC000FFFFFFFFFF000000000000000000000009
:102CD000FF0000000000000000000000FC2C0008C5
:102CE00000000020FC01000076020008802E000891
:102CF000FC01002024080000A02400081110096C29
:102D0000DC020106200FA042A010086655443322C1
:102D100011070025190108200D0C0B020105030203
:102D20001218031940030109200F0E0D09526166A4
:102D300061656C2D37323638321AFF01021F1F10C1
:102D40000FD6BE898E55555513100C13131013E46E
:102D50002526271201921A40114281402A82A45A44
:102D600005D28E7A05C28F7A052F2509121C2720DD
:102D7000018128101C80DFA4E0F37F052110F0A062
:102D80003FBBEF2D1A8089132762600F70D288AC89
:102D900091DEC0146042FC3F6A0122F01C06A26A68
:102DA000AC10097970D2EA0A1E0A2315A01F55A19A
:102DB0001244125214061E1E16068E240144700878
:102DC00050500111FFF860628019B624FFFF4F12C6
:102DD0000425294176711010172428292A2B393D02
:102DE000696B777879A62518260102030405060782
:102DF00008090A260B0C0D0E0F10111213141516CC
:102E00001718191A1B1C1D1E1F2021222324EE1225
:102E1000DB201DCE01CD02B003A704E005F906C2F8
:102E200007B7087109E80A6E0C720D230E8C0E109C
:102E30000D8101F6028904F6057A077907180F0952
:102E4000970A2C0CB90D4A0FDF108C128D0221A0AD
:102E5000297B01F5027B04E7055C07F709380AA026
:102E60000BF80C450E770F9110881189118B1162A8
:102E70000976098A099E09B009299A2904299D41E0
:04000005080000C12E
:00000001FF
